{
  "contractName": "Auction",
  "abi": [
    {
      "inputs": [
        {
          "internalType": "address",
          "name": "_owner",
          "type": "address"
        },
        {
          "internalType": "uint256",
          "name": "_bidIncrement",
          "type": "uint256"
        },
        {
          "internalType": "uint256",
          "name": "_startBlock",
          "type": "uint256"
        },
        {
          "internalType": "uint256",
          "name": "_endBlock",
          "type": "uint256"
        },
        {
          "internalType": "string",
          "name": "_ipfsHash",
          "type": "string"
        }
      ],
      "stateMutability": "nonpayable",
      "type": "constructor"
    },
    {
      "anonymous": false,
      "inputs": [
        {
          "indexed": false,
          "internalType": "address",
          "name": "bidder",
          "type": "address"
        },
        {
          "indexed": false,
          "internalType": "uint256",
          "name": "bid",
          "type": "uint256"
        },
        {
          "indexed": false,
          "internalType": "address",
          "name": "highestBidder",
          "type": "address"
        },
        {
          "indexed": false,
          "internalType": "uint256",
          "name": "highestBid",
          "type": "uint256"
        },
        {
          "indexed": false,
          "internalType": "uint256",
          "name": "highestBindingBid",
          "type": "uint256"
        }
      ],
      "name": "LogBid",
      "type": "event"
    },
    {
      "anonymous": false,
      "inputs": [],
      "name": "LogCanceled",
      "type": "event"
    },
    {
      "anonymous": false,
      "inputs": [
        {
          "indexed": false,
          "internalType": "address",
          "name": "withdrawer",
          "type": "address"
        },
        {
          "indexed": false,
          "internalType": "address",
          "name": "withdrawalAccount",
          "type": "address"
        },
        {
          "indexed": false,
          "internalType": "uint256",
          "name": "amount",
          "type": "uint256"
        }
      ],
      "name": "LogWithdrawal",
      "type": "event"
    },
    {
      "inputs": [],
      "name": "bidIncrement",
      "outputs": [
        {
          "internalType": "uint256",
          "name": "",
          "type": "uint256"
        }
      ],
      "stateMutability": "view",
      "type": "function"
    },
    {
      "inputs": [],
      "name": "canceled",
      "outputs": [
        {
          "internalType": "bool",
          "name": "",
          "type": "bool"
        }
      ],
      "stateMutability": "view",
      "type": "function"
    },
    {
      "inputs": [],
      "name": "endBlock",
      "outputs": [
        {
          "internalType": "uint256",
          "name": "",
          "type": "uint256"
        }
      ],
      "stateMutability": "view",
      "type": "function"
    },
    {
      "inputs": [
        {
          "internalType": "address",
          "name": "",
          "type": "address"
        }
      ],
      "name": "fundsByBidder",
      "outputs": [
        {
          "internalType": "uint256",
          "name": "",
          "type": "uint256"
        }
      ],
      "stateMutability": "view",
      "type": "function"
    },
    {
      "inputs": [],
      "name": "highestBidder",
      "outputs": [
        {
          "internalType": "address",
          "name": "",
          "type": "address"
        }
      ],
      "stateMutability": "view",
      "type": "function"
    },
    {
      "inputs": [],
      "name": "highestBindingBid",
      "outputs": [
        {
          "internalType": "uint256",
          "name": "",
          "type": "uint256"
        }
      ],
      "stateMutability": "view",
      "type": "function"
    },
    {
      "inputs": [],
      "name": "ipfsHash",
      "outputs": [
        {
          "internalType": "string",
          "name": "",
          "type": "string"
        }
      ],
      "stateMutability": "view",
      "type": "function"
    },
    {
      "inputs": [],
      "name": "owner",
      "outputs": [
        {
          "internalType": "address",
          "name": "",
          "type": "address"
        }
      ],
      "stateMutability": "view",
      "type": "function"
    },
    {
      "inputs": [],
      "name": "startBlock",
      "outputs": [
        {
          "internalType": "uint256",
          "name": "",
          "type": "uint256"
        }
      ],
      "stateMutability": "view",
      "type": "function"
    },
    {
      "inputs": [],
      "name": "getHighestBid",
      "outputs": [
        {
          "internalType": "uint256",
          "name": "",
          "type": "uint256"
        }
      ],
      "stateMutability": "view",
      "type": "function"
    },
    {
      "inputs": [],
      "name": "placeBid",
      "outputs": [
        {
          "internalType": "bool",
          "name": "success",
          "type": "bool"
        }
      ],
      "stateMutability": "payable",
      "type": "function"
    },
    {
      "inputs": [],
      "name": "cancelAuction",
      "outputs": [
        {
          "internalType": "bool",
          "name": "success",
          "type": "bool"
        }
      ],
      "stateMutability": "nonpayable",
      "type": "function"
    },
    {
      "inputs": [],
      "name": "withdraw",
      "outputs": [
        {
          "internalType": "bool",
          "name": "success",
          "type": "bool"
        }
      ],
      "stateMutability": "nonpayable",
      "type": "function"
    }
  ],
  "bytecode": "0x60806040523480156200001157600080fd5b50604051620014b6380380620014b6833981810160405281019062000037919062000227565b8183106200004457600080fd5b438310156200005257600080fd5b846000806101000a81548173ffffffffffffffffffffffffffffffffffffffff021916908373ffffffffffffffffffffffffffffffffffffffff1602179055508360018190555082600281905550816003819055508060049080519060200190620000bf929190620000cb565b505050505050620004c4565b828054620000d990620003a1565b90600052602060002090601f016020900481019282620000fd576000855562000149565b82601f106200011857805160ff191683800117855562000149565b8280016001018555821562000149579182015b82811115620001485782518255916020019190600101906200012b565b5b5090506200015891906200015c565b5090565b5b80821115620001775760008160009055506001016200015d565b5090565b6000620001926200018c84620002f7565b620002ce565b905082815260208101848484011115620001b157620001b062000470565b5b620001be8482856200036b565b509392505050565b600081519050620001d78162000490565b92915050565b600082601f830112620001f557620001f46200046b565b5b8151620002078482602086016200017b565b91505092915050565b6000815190506200022181620004aa565b92915050565b600080600080600060a086880312156200024657620002456200047a565b5b60006200025688828901620001c6565b9550506020620002698882890162000210565b94505060406200027c8882890162000210565b93505060606200028f8882890162000210565b925050608086015167ffffffffffffffff811115620002b357620002b262000475565b5b620002c188828901620001dd565b9150509295509295909350565b6000620002da620002ed565b9050620002e88282620003d7565b919050565b6000604051905090565b600067ffffffffffffffff8211156200031557620003146200043c565b5b62000320826200047f565b9050602081019050919050565b60006200033a8262000341565b9050919050565b600073ffffffffffffffffffffffffffffffffffffffff82169050919050565b6000819050919050565b60005b838110156200038b5780820151818401526020810190506200036e565b838111156200039b576000848401525b50505050565b60006002820490506001821680620003ba57607f821691505b60208210811415620003d157620003d06200040d565b5b50919050565b620003e2826200047f565b810181811067ffffffffffffffff821117156200040457620004036200043c565b5b80604052505050565b7f4e487b7100000000000000000000000000000000000000000000000000000000600052602260045260246000fd5b7f4e487b7100000000000000000000000000000000000000000000000000000000600052604160045260246000fd5b600080fd5b600080fd5b600080fd5b600080fd5b6000601f19601f8301169050919050565b6200049b816200032d565b8114620004a757600080fd5b50565b620004b58162000361565b8114620004c157600080fd5b50565b610fe280620004d46000396000f3fe6080604052600436106100c25760003560e01c80638fa8b7901161007f578063c623674f11610059578063c623674f1461024a578063ce10cf8014610275578063ecfc7ecc146102b2578063f5b56c56146102d0576100c2565b80638fa8b790146101c957806391f90157146101f4578063b3cc167a1461021f576100c2565b8063083c6323146100c75780633ccfd60b146100f25780633f9942ff1461011d57806348cd4cb1146101485780634979440a146101735780638da5cb5b1461019e575b600080fd5b3480156100d357600080fd5b506100dc6102fb565b6040516100e99190610db3565b60405180910390f35b3480156100fe57600080fd5b50610107610301565b6040516101149190610d76565b60405180910390f35b34801561012957600080fd5b506101326106c8565b60405161013f9190610d76565b60405180910390f35b34801561015457600080fd5b5061015d6106db565b60405161016a9190610db3565b60405180910390f35b34801561017f57600080fd5b506101886106e1565b6040516101959190610db3565b60405180910390f35b3480156101aa57600080fd5b506101b361074a565b6040516101c09190610cd1565b60405180910390f35b3480156101d557600080fd5b506101de61076e565b6040516101eb9190610d76565b60405180910390f35b34801561020057600080fd5b50610209610840565b6040516102169190610cd1565b60405180910390f35b34801561022b57600080fd5b50610234610866565b6040516102419190610db3565b60405180910390f35b34801561025657600080fd5b5061025f61086c565b60405161026c9190610d91565b60405180910390f35b34801561028157600080fd5b5061029c60048036038101906102979190610c3e565b6108fa565b6040516102a99190610db3565b60405180910390f35b6102ba610912565b6040516102c79190610d76565b60405180910390f35b3480156102dc57600080fd5b506102e5610c07565b6040516102f29190610db3565b60405180910390f35b60035481565b600060035443101580156103215750600560009054906101000a900460ff165b61032a57600080fd5b600080600560009054906101000a900460ff161561038c57339150600860008373ffffffffffffffffffffffffffffffffffffffff1673ffffffffffffffffffffffffffffffffffffffff1681526020019081526020016000205490506105e2565b60008054906101000a900473ffffffffffffffffffffffffffffffffffffffff1673ffffffffffffffffffffffffffffffffffffffff163373ffffffffffffffffffffffffffffffffffffffff16141561042a57600760009054906101000a900473ffffffffffffffffffffffffffffffffffffffff16915060065490506001600960006101000a81548160ff0219169083151502179055506105e1565b600760009054906101000a900473ffffffffffffffffffffffffffffffffffffffff1673ffffffffffffffffffffffffffffffffffffffff163373ffffffffffffffffffffffffffffffffffffffff16141561059a57600760009054906101000a900473ffffffffffffffffffffffffffffffffffffffff169150600960009054906101000a900460ff16156105235760086000600760009054906101000a900473ffffffffffffffffffffffffffffffffffffffff1673ffffffffffffffffffffffffffffffffffffffff1673ffffffffffffffffffffffffffffffffffffffff168152602001908152602001600020549050610595565b60065460086000600760009054906101000a900473ffffffffffffffffffffffffffffffffffffffff1673ffffffffffffffffffffffffffffffffffffffff1673ffffffffffffffffffffffffffffffffffffffff168152602001908152602001600020546105929190610e40565b90505b6105e0565b339150600860008373ffffffffffffffffffffffffffffffffffffffff1673ffffffffffffffffffffffffffffffffffffffff1681526020019081526020016000205490505b5b5b60008114156105f057600080fd5b80600860008473ffffffffffffffffffffffffffffffffffffffff1673ffffffffffffffffffffffffffffffffffffffff168152602001908152602001600020600082825461063f9190610e40565b925050819055503373ffffffffffffffffffffffffffffffffffffffff166108fc829081150290604051600060405180830381858888f1935050505061068457600080fd5b7f0ec497a8ae5b1ba29c60470ef651def995fac3deebbdcc56c47a4e5f51a4c2bd3383836040516106b793929190610cec565b60405180910390a160019250505090565b600560009054906101000a900460ff1681565b60025481565b600060086000600760009054906101000a900473ffffffffffffffffffffffffffffffffffffffff1673ffffffffffffffffffffffffffffffffffffffff1673ffffffffffffffffffffffffffffffffffffffff16815260200190815260200160002054905090565b60008054906101000a900473ffffffffffffffffffffffffffffffffffffffff1681565b60008060009054906101000a900473ffffffffffffffffffffffffffffffffffffffff1673ffffffffffffffffffffffffffffffffffffffff163373ffffffffffffffffffffffffffffffffffffffff16146107c957600080fd5b6003544311156107d857600080fd5b600560009054906101000a900460ff16156107f257600080fd5b6001600560006101000a81548160ff0219169083151502179055507f462b6ca7f632601af1295aeb320851f50e8e630a309173f23535845ea4bfb3b960405160405180910390a16001905090565b600760009054906101000a900473ffffffffffffffffffffffffffffffffffffffff1681565b60015481565b6004805461087990610eef565b80601f01602080910402602001604051908101604052809291908181526020018280546108a590610eef565b80156108f25780601f106108c7576101008083540402835291602001916108f2565b820191906000526020600020905b8154815290600101906020018083116108d557829003601f168201915b505050505081565b60086020528060005260406000206000915090505481565b600060025443101561092357600080fd5b60035443111561093257600080fd5b600560009054906101000a900460ff161561094c57600080fd5b60008054906101000a900473ffffffffffffffffffffffffffffffffffffffff1673ffffffffffffffffffffffffffffffffffffffff163373ffffffffffffffffffffffffffffffffffffffff1614156109a557600080fd5b60003414156109b357600080fd5b600034600860003373ffffffffffffffffffffffffffffffffffffffff1673ffffffffffffffffffffffffffffffffffffffff16815260200190815260200160002054610a009190610dea565b90506006548111610a1057600080fd5b600060086000600760009054906101000a900473ffffffffffffffffffffffffffffffffffffffff1673ffffffffffffffffffffffffffffffffffffffff1673ffffffffffffffffffffffffffffffffffffffff16815260200190815260200160002054905081600860003373ffffffffffffffffffffffffffffffffffffffff1673ffffffffffffffffffffffffffffffffffffffff16815260200190815260200160002081905550808211610ae357610ad860015483610ad29190610dea565b82610c0d565b600681905550610b9b565b600760009054906101000a900473ffffffffffffffffffffffffffffffffffffffff1673ffffffffffffffffffffffffffffffffffffffff163373ffffffffffffffffffffffffffffffffffffffff1614610b975733600760006101000a81548173ffffffffffffffffffffffffffffffffffffffff021916908373ffffffffffffffffffffffffffffffffffffffff160217905550610b908260015483610b8b9190610dea565b610c0d565b6006819055505b8190505b7ff152f4ff5e488c55370a2d53925a55055228ebd8ec95bd0251bbb299e48786b03383600760009054906101000a900473ffffffffffffffffffffffffffffffffffffffff1684600654604051610bf6959493929190610d23565b60405180910390a160019250505090565b60065481565b600081831015610c1f57829050610c23565b8190505b92915050565b600081359050610c3881610f95565b92915050565b600060208284031215610c5457610c53610f7f565b5b6000610c6284828501610c29565b91505092915050565b610c7481610e74565b82525050565b610c8381610e86565b82525050565b6000610c9482610dce565b610c9e8185610dd9565b9350610cae818560208601610ebc565b610cb781610f84565b840191505092915050565b610ccb81610eb2565b82525050565b6000602082019050610ce66000830184610c6b565b92915050565b6000606082019050610d016000830186610c6b565b610d0e6020830185610c6b565b610d1b6040830184610cc2565b949350505050565b600060a082019050610d386000830188610c6b565b610d456020830187610cc2565b610d526040830186610c6b565b610d5f6060830185610cc2565b610d6c6080830184610cc2565b9695505050505050565b6000602082019050610d8b6000830184610c7a565b92915050565b60006020820190508181036000830152610dab8184610c89565b905092915050565b6000602082019050610dc86000830184610cc2565b92915050565b600081519050919050565b600082825260208201905092915050565b6000610df582610eb2565b9150610e0083610eb2565b9250827fffffffffffffffffffffffffffffffffffffffffffffffffffffffffffffffff03821115610e3557610e34610f21565b5b828201905092915050565b6000610e4b82610eb2565b9150610e5683610eb2565b925082821015610e6957610e68610f21565b5b828203905092915050565b6000610e7f82610e92565b9050919050565b60008115159050919050565b600073ffffffffffffffffffffffffffffffffffffffff82169050919050565b6000819050919050565b60005b83811015610eda578082015181840152602081019050610ebf565b83811115610ee9576000848401525b50505050565b60006002820490506001821680610f0757607f821691505b60208210811415610f1b57610f1a610f50565b5b50919050565b7f4e487b7100000000000000000000000000000000000000000000000000000000600052601160045260246000fd5b7f4e487b7100000000000000000000000000000000000000000000000000000000600052602260045260246000fd5b600080fd5b6000601f19601f8301169050919050565b610f9e81610e74565b8114610fa957600080fd5b5056fea2646970667358221220c4a8c36bd667666bd22014724a73c9a7fa5aec65cec5c6efe3614b7cb85b91cf64736f6c63430008060033",
  "immutableReferences": {},
  "source": "// SPDX-License-Identifier: UNLICENSED\npragma solidity 0.8.6;\n\ncontract Auction {\n    // static\n    address public owner;\n    uint public bidIncrement;\n    uint public startBlock;\n    uint public endBlock;\n    string public ipfsHash;\n\n    // state\n    bool public canceled;\n    uint public highestBindingBid;\n    address public highestBidder;\n    mapping(address => uint256) public fundsByBidder;\n    bool ownerHasWithdrawn;\n\n    event LogBid(address bidder, uint bid, address highestBidder, uint highestBid, uint highestBindingBid);\n    event LogWithdrawal(address withdrawer, address withdrawalAccount, uint amount);\n    event LogCanceled();\n\n    constructor(address _owner, uint _bidIncrement, uint _startBlock, uint _endBlock, string memory _ipfsHash) {\n        require(_startBlock < _endBlock);\n        require (_startBlock >= block.number) ;\n\n        owner = _owner;\n        bidIncrement = _bidIncrement;\n        startBlock = _startBlock;\n        endBlock = _endBlock;\n        ipfsHash = _ipfsHash;\n    }\n\n    function getHighestBid()\n        public\n        view\n        returns (uint)\n    {\n        return fundsByBidder[highestBidder];\n    }\n\n    function placeBid()\n        public\n        payable\n        onlyAfterStart\n        onlyBeforeEnd\n        onlyNotCanceled\n        onlyNotOwner\n        returns (bool success)\n    {\n        // reject payments of 0 ETH\n        require (msg.value != 0) ;\n\n        // calculate the user's total bid based on the current amount they've sent to the contract\n        // plus whatever has been sent with this transaction\n        uint newBid = fundsByBidder[msg.sender] + msg.value;\n\n        // if the user isn't even willing to overbid the highest binding bid, there's nothing for us\n        // to do except revert the transaction.\n        require (newBid > highestBindingBid) ;\n\n        // grab the previous highest bid (before updating fundsByBidder, in case msg.sender is the\n        // highestBidder and is just increasing their maximum bid).\n        uint highestBid = fundsByBidder[highestBidder];\n\n        fundsByBidder[msg.sender] = newBid;\n\n        if (newBid <= highestBid) {\n            // if the user has overbid the highestBindingBid but not the highestBid, we simply\n            // increase the highestBindingBid and leave highestBidder alone.\n\n            // note that this case is impossible if msg.sender == highestBidder because you can never\n            // bid less ETH than you've already bid.\n\n            highestBindingBid = min(newBid + bidIncrement, highestBid);\n        } else {\n            // if msg.sender is already the highest bidder, they must simply be wanting to raise\n            // their maximum bid, in which case we shouldn't increase the highestBindingBid.\n\n            // if the user is NOT highestBidder, and has overbid highestBid completely, we set them\n            // as the new highestBidder and recalculate highestBindingBid.\n\n            if (msg.sender != highestBidder) {\n                highestBidder = msg.sender;\n                highestBindingBid = min(newBid, highestBid + bidIncrement);\n            }\n            highestBid = newBid;\n        }\n\n        emit LogBid(msg.sender, newBid, highestBidder, highestBid, highestBindingBid);\n        return true;\n    }\n\n    function min(uint a, uint b)\n        private\n        pure\n        returns (uint)\n    {\n        if (a < b) return a;\n        return b;\n    }\n\n    function cancelAuction()\n        public\n        onlyOwner\n        onlyBeforeEnd\n        onlyNotCanceled\n        returns (bool success)\n    {\n        canceled = true;\n        emit LogCanceled();\n        return true;\n    }\n\n    function withdraw()\n        public\n        onlyEndedOrCanceled\n        returns (bool success)\n    {\n        address withdrawalAccount;\n        uint withdrawalAmount;\n\n        if (canceled) {\n            // if the auction was canceled, everyone should simply be allowed to withdraw their funds\n            withdrawalAccount = msg.sender;\n            withdrawalAmount = fundsByBidder[withdrawalAccount];\n\n        } else {\n            // the auction finished without being canceled\n\n            if (msg.sender == owner) {\n                // the auction's owner should be allowed to withdraw the highestBindingBid\n                withdrawalAccount = highestBidder;\n                withdrawalAmount = highestBindingBid;\n                ownerHasWithdrawn = true;\n\n            } else if (msg.sender == highestBidder) {\n                // the highest bidder should only be allowed to withdraw the difference between their\n                // highest bid and the highestBindingBid\n                withdrawalAccount = highestBidder;\n                if (ownerHasWithdrawn) {\n                    withdrawalAmount = fundsByBidder[highestBidder];\n                } else {\n                    withdrawalAmount = fundsByBidder[highestBidder] - highestBindingBid;\n                }\n\n            } else {\n                // anyone who participated but did not win the auction should be allowed to withdraw\n                // the full amount of their funds\n                withdrawalAccount = msg.sender;\n                withdrawalAmount = fundsByBidder[withdrawalAccount];\n            }\n        }\n\n        require (withdrawalAmount != 0) ;\n\n        fundsByBidder[withdrawalAccount] -= withdrawalAmount;\n\n        // send the funds\n        require (payable(msg.sender).send(withdrawalAmount)) ;\n\n        emit LogWithdrawal(msg.sender, withdrawalAccount, withdrawalAmount);\n\n        return true;\n    }\n\n    modifier onlyOwner {\n        require (msg.sender == owner) ;\n        _;\n    }\n\n    modifier onlyNotOwner {\n        require (msg.sender != owner) ;\n        _;\n    }\n\n    modifier onlyAfterStart {\n        require (block.number >= startBlock) ;\n        _;\n    }\n\n    modifier onlyBeforeEnd {\n        require (block.number <= endBlock) ;\n        _;\n    }\n\n    modifier onlyNotCanceled {\n        require (!canceled) ;\n        _;\n    }\n\n    modifier onlyEndedOrCanceled {\n        require (block.number >= endBlock && canceled) ;\n        _;\n    }\n}\n\n\n",
  "sourcePath": "/home/vijaysugali/Desktop/Hackathons/HackOdisha/SmartContracts/main_contracts/SrujanMint/contracts/Auction/Auction.sol",
  "compiler": {
    "name": "solc",
    "version": "0.8.6+commit.11564f7e.Emscripten.clang"
  },
  "schemaVersion": "3.4.1",
  "updatedAt": "2021-09-18T11:34:44.823Z",
  "devdoc": {
    "kind": "dev",
    "methods": {},
    "version": 1
  },
  "userdoc": {
    "kind": "user",
    "methods": {},
    "version": 1
  }
}