{
  "contractName": "ERC721",
  "abi": [
    {
      "inputs": [
        {
          "internalType": "string",
          "name": "name_",
          "type": "string"
        },
        {
          "internalType": "string",
          "name": "symbol_",
          "type": "string"
        }
      ],
      "stateMutability": "nonpayable",
      "type": "constructor"
    },
    {
      "anonymous": false,
      "inputs": [
        {
          "indexed": true,
          "internalType": "address",
          "name": "owner",
          "type": "address"
        },
        {
          "indexed": true,
          "internalType": "address",
          "name": "approved",
          "type": "address"
        },
        {
          "indexed": true,
          "internalType": "uint256",
          "name": "tokenId",
          "type": "uint256"
        }
      ],
      "name": "Approval",
      "type": "event"
    },
    {
      "anonymous": false,
      "inputs": [
        {
          "indexed": true,
          "internalType": "address",
          "name": "owner",
          "type": "address"
        },
        {
          "indexed": true,
          "internalType": "address",
          "name": "operator",
          "type": "address"
        },
        {
          "indexed": false,
          "internalType": "bool",
          "name": "approved",
          "type": "bool"
        }
      ],
      "name": "ApprovalForAll",
      "type": "event"
    },
    {
      "anonymous": false,
      "inputs": [
        {
          "indexed": true,
          "internalType": "address",
          "name": "previousOwner",
          "type": "address"
        },
        {
          "indexed": true,
          "internalType": "address",
          "name": "newOwner",
          "type": "address"
        }
      ],
      "name": "OwnershipTransferred",
      "type": "event"
    },
    {
      "anonymous": false,
      "inputs": [
        {
          "indexed": true,
          "internalType": "address",
          "name": "from",
          "type": "address"
        },
        {
          "indexed": true,
          "internalType": "address",
          "name": "to",
          "type": "address"
        },
        {
          "indexed": true,
          "internalType": "uint256",
          "name": "tokenId",
          "type": "uint256"
        }
      ],
      "name": "Transfer",
      "type": "event"
    },
    {
      "inputs": [],
      "name": "_baseTokenURI",
      "outputs": [
        {
          "internalType": "string",
          "name": "",
          "type": "string"
        }
      ],
      "stateMutability": "view",
      "type": "function",
      "constant": true
    },
    {
      "inputs": [],
      "name": "owner",
      "outputs": [
        {
          "internalType": "address",
          "name": "",
          "type": "address"
        }
      ],
      "stateMutability": "view",
      "type": "function",
      "constant": true
    },
    {
      "inputs": [],
      "name": "renounceOwnership",
      "outputs": [],
      "stateMutability": "nonpayable",
      "type": "function"
    },
    {
      "inputs": [
        {
          "internalType": "address",
          "name": "newOwner",
          "type": "address"
        }
      ],
      "name": "transferOwnership",
      "outputs": [],
      "stateMutability": "nonpayable",
      "type": "function"
    },
    {
      "inputs": [
        {
          "internalType": "bytes4",
          "name": "_interfaceId",
          "type": "bytes4"
        }
      ],
      "name": "supportsInterface",
      "outputs": [
        {
          "internalType": "bool",
          "name": "",
          "type": "bool"
        }
      ],
      "stateMutability": "view",
      "type": "function",
      "constant": true
    },
    {
      "inputs": [
        {
          "internalType": "address",
          "name": "owner",
          "type": "address"
        }
      ],
      "name": "balanceOf",
      "outputs": [
        {
          "internalType": "uint256",
          "name": "",
          "type": "uint256"
        }
      ],
      "stateMutability": "view",
      "type": "function",
      "constant": true
    },
    {
      "inputs": [
        {
          "internalType": "uint256",
          "name": "tokenId",
          "type": "uint256"
        }
      ],
      "name": "ownerOf",
      "outputs": [
        {
          "internalType": "address",
          "name": "",
          "type": "address"
        }
      ],
      "stateMutability": "view",
      "type": "function",
      "constant": true
    },
    {
      "inputs": [],
      "name": "name",
      "outputs": [
        {
          "internalType": "string",
          "name": "",
          "type": "string"
        }
      ],
      "stateMutability": "view",
      "type": "function",
      "constant": true
    },
    {
      "inputs": [],
      "name": "symbol",
      "outputs": [
        {
          "internalType": "string",
          "name": "",
          "type": "string"
        }
      ],
      "stateMutability": "view",
      "type": "function",
      "constant": true
    },
    {
      "inputs": [
        {
          "internalType": "uint256",
          "name": "tokenId",
          "type": "uint256"
        }
      ],
      "name": "_callTokenURI",
      "outputs": [
        {
          "internalType": "string",
          "name": "",
          "type": "string"
        }
      ],
      "stateMutability": "view",
      "type": "function",
      "constant": true
    },
    {
      "inputs": [
        {
          "internalType": "uint256",
          "name": "_tokenId",
          "type": "uint256"
        }
      ],
      "name": "tokenURI",
      "outputs": [
        {
          "internalType": "string",
          "name": "",
          "type": "string"
        }
      ],
      "stateMutability": "view",
      "type": "function",
      "constant": true
    },
    {
      "inputs": [
        {
          "internalType": "string",
          "name": "_pBaseURI",
          "type": "string"
        }
      ],
      "name": "proxySetBaseURI",
      "outputs": [],
      "stateMutability": "nonpayable",
      "type": "function"
    },
    {
      "inputs": [
        {
          "internalType": "uint256",
          "name": "_tokenId",
          "type": "uint256"
        },
        {
          "internalType": "string",
          "name": "_tokenURI",
          "type": "string"
        }
      ],
      "name": "proxySetTokenURI",
      "outputs": [],
      "stateMutability": "nonpayable",
      "type": "function"
    },
    {
      "inputs": [
        {
          "internalType": "address",
          "name": "to",
          "type": "address"
        },
        {
          "internalType": "uint256",
          "name": "tokenId",
          "type": "uint256"
        }
      ],
      "name": "approve",
      "outputs": [],
      "stateMutability": "nonpayable",
      "type": "function"
    },
    {
      "inputs": [
        {
          "internalType": "uint256",
          "name": "_tokenId",
          "type": "uint256"
        }
      ],
      "name": "getApproved",
      "outputs": [
        {
          "internalType": "address",
          "name": "",
          "type": "address"
        }
      ],
      "stateMutability": "view",
      "type": "function",
      "constant": true
    },
    {
      "inputs": [
        {
          "internalType": "address",
          "name": "operator",
          "type": "address"
        },
        {
          "internalType": "bool",
          "name": "approved",
          "type": "bool"
        }
      ],
      "name": "setApprovalForAll",
      "outputs": [],
      "stateMutability": "nonpayable",
      "type": "function"
    },
    {
      "inputs": [
        {
          "internalType": "address",
          "name": "owner",
          "type": "address"
        },
        {
          "internalType": "address",
          "name": "operator",
          "type": "address"
        }
      ],
      "name": "isApprovedForAll",
      "outputs": [
        {
          "internalType": "bool",
          "name": "",
          "type": "bool"
        }
      ],
      "stateMutability": "view",
      "type": "function",
      "constant": true
    },
    {
      "inputs": [
        {
          "internalType": "address",
          "name": "from",
          "type": "address"
        },
        {
          "internalType": "address",
          "name": "to",
          "type": "address"
        },
        {
          "internalType": "uint256",
          "name": "tokenId",
          "type": "uint256"
        }
      ],
      "name": "transferFrom",
      "outputs": [],
      "stateMutability": "nonpayable",
      "type": "function"
    },
    {
      "inputs": [
        {
          "internalType": "address",
          "name": "from",
          "type": "address"
        },
        {
          "internalType": "address",
          "name": "to",
          "type": "address"
        },
        {
          "internalType": "uint256",
          "name": "tokenId",
          "type": "uint256"
        }
      ],
      "name": "safeTransferFrom",
      "outputs": [],
      "stateMutability": "nonpayable",
      "type": "function"
    },
    {
      "inputs": [
        {
          "internalType": "address",
          "name": "from",
          "type": "address"
        },
        {
          "internalType": "address",
          "name": "to",
          "type": "address"
        },
        {
          "internalType": "uint256",
          "name": "tokenId",
          "type": "uint256"
        },
        {
          "internalType": "bytes",
          "name": "_data",
          "type": "bytes"
        }
      ],
      "name": "safeTransferFrom",
      "outputs": [],
      "stateMutability": "nonpayable",
      "type": "function"
    },
    {
      "inputs": [
        {
          "internalType": "address",
          "name": "_to",
          "type": "address"
        },
        {
          "internalType": "uint256",
          "name": "_tokenId",
          "type": "uint256"
        },
        {
          "internalType": "bytes",
          "name": "_data",
          "type": "bytes"
        }
      ],
      "name": "proxySafeMint",
      "outputs": [],
      "stateMutability": "nonpayable",
      "type": "function"
    },
    {
      "inputs": [
        {
          "internalType": "uint256",
          "name": "_tokenId",
          "type": "uint256"
        }
      ],
      "name": "proxyBurn",
      "outputs": [],
      "stateMutability": "nonpayable",
      "type": "function"
    },
    {
      "inputs": [
        {
          "internalType": "address",
          "name": "_to",
          "type": "address"
        },
        {
          "internalType": "uint256",
          "name": "_tokenId",
          "type": "uint256"
        }
      ],
      "name": "proxyApprove",
      "outputs": [],
      "stateMutability": "nonpayable",
      "type": "function"
    },
    {
      "inputs": [
        {
          "internalType": "address",
          "name": "owner",
          "type": "address"
        },
        {
          "internalType": "uint256",
          "name": "index",
          "type": "uint256"
        }
      ],
      "name": "tokenOfOwnerByIndex",
      "outputs": [
        {
          "internalType": "uint256",
          "name": "",
          "type": "uint256"
        }
      ],
      "stateMutability": "view",
      "type": "function",
      "constant": true
    },
    {
      "inputs": [],
      "name": "totalSupply",
      "outputs": [
        {
          "internalType": "uint256",
          "name": "",
          "type": "uint256"
        }
      ],
      "stateMutability": "view",
      "type": "function",
      "constant": true
    },
    {
      "inputs": [
        {
          "internalType": "uint256",
          "name": "index",
          "type": "uint256"
        }
      ],
      "name": "tokenByIndex",
      "outputs": [
        {
          "internalType": "uint256",
          "name": "",
          "type": "uint256"
        }
      ],
      "stateMutability": "view",
      "type": "function",
      "constant": true
    }
  ],
  "bytecode": "0x60806040523480156200001157600080fd5b506040516200442738038062004427833981810160405281019062000037919062000257565b6000620000496200012160201b60201c565b9050806000806101000a81548173ffffffffffffffffffffffffffffffffffffffff021916908373ffffffffffffffffffffffffffffffffffffffff1602179055508073ffffffffffffffffffffffffffffffffffffffff16600073ffffffffffffffffffffffffffffffffffffffff167f8be0079c531659141344cd1fd0a4f28419497f9722a3daafe3b4186f6b6457e060405160405180910390a3508160019080519060200190620000ff92919062000129565b5080600290805190602001906200011892919062000129565b50505062000460565b600033905090565b828054620001379062000371565b90600052602060002090601f0160209004810192826200015b5760008555620001a7565b82601f106200017657805160ff1916838001178555620001a7565b82800160010185558215620001a7579182015b82811115620001a657825182559160200191906001019062000189565b5b509050620001b69190620001ba565b5090565b5b80821115620001d5576000816000905550600101620001bb565b5090565b6000620001f0620001ea8462000305565b620002dc565b9050828152602081018484840111156200020f576200020e62000440565b5b6200021c8482856200033b565b509392505050565b600082601f8301126200023c576200023b6200043b565b5b81516200024e848260208601620001d9565b91505092915050565b600080604083850312156200027157620002706200044a565b5b600083015167ffffffffffffffff81111562000292576200029162000445565b5b620002a08582860162000224565b925050602083015167ffffffffffffffff811115620002c457620002c362000445565b5b620002d28582860162000224565b9150509250929050565b6000620002e8620002fb565b9050620002f68282620003a7565b919050565b6000604051905090565b600067ffffffffffffffff8211156200032357620003226200040c565b5b6200032e826200044f565b9050602081019050919050565b60005b838110156200035b5780820151818401526020810190506200033e565b838111156200036b576000848401525b50505050565b600060028204905060018216806200038a57607f821691505b60208210811415620003a157620003a0620003dd565b5b50919050565b620003b2826200044f565b810181811067ffffffffffffffff82111715620003d457620003d36200040c565b5b80604052505050565b7f4e487b7100000000000000000000000000000000000000000000000000000000600052602260045260246000fd5b7f4e487b7100000000000000000000000000000000000000000000000000000000600052604160045260246000fd5b600080fd5b600080fd5b600080fd5b600080fd5b6000601f19601f8301169050919050565b613fb780620004706000396000f3fe608060405234801561001057600080fd5b506004361061018e5760003560e01c80636352211e116100de578063b88d4fde11610097578063cfc86f7b11610071578063cfc86f7b14610491578063e5589c1b146104af578063e985e9c5146104cb578063f2fde38b146104fb5761018e565b8063b88d4fde14610429578063c420409214610445578063c87b56dd146104615761018e565b80636352211e1461036757806370a0823114610397578063715018a6146103c75780638da5cb5b146103d157806395d89b41146103ef578063a22cb4651461040d5761018e565b806318160ddd1161014b5780632f745c59116101255780632f745c59146102bb57806341bf875e146102eb57806342842e0e1461031b5780634f6ccce7146103375761018e565b806318160ddd146102655780631e8383a81461028357806323b872dd1461029f5761018e565b806301ffc9a71461019357806306fdde03146101c3578063081655e9146101e1578063081812fc146101fd578063095ea7b31461022d57806317d05d8a14610249575b600080fd5b6101ad60048036038101906101a89190612b69565b610517565b6040516101ba9190613115565b60405180910390f35b6101cb610661565b6040516101d89190613130565b60405180910390f35b6101fb60048036038101906101f69190612afa565b6106f3565b005b61021760048036038101906102129190612c0c565b610771565b60405161022491906130ae565b60405180910390f35b61024760048036038101906102429190612aba565b6107f6565b005b610263600480360381019061025e9190612bc3565b61090e565b005b61026d61098f565b60405161027a9190613432565b60405180910390f35b61029d60048036038101906102989190612c0c565b61099c565b005b6102b960048036038101906102b491906129a4565b6109a8565b005b6102d560048036038101906102d09190612aba565b610a08565b6040516102e29190613432565b60405180910390f35b61030560048036038101906103009190612c0c565b610aad565b6040516103129190613130565b60405180910390f35b610335600480360381019061033091906129a4565b610b54565b005b610351600480360381019061034c9190612c0c565b610b74565b60405161035e9190613432565b60405180910390f35b610381600480360381019061037c9190612c0c565b610be5565b60405161038e91906130ae565b60405180910390f35b6103b160048036038101906103ac9190612937565b610c97565b6040516103be9190613432565b60405180910390f35b6103cf610d4f565b005b6103d9610e89565b6040516103e691906130ae565b60405180910390f35b6103f7610eb2565b6040516104049190613130565b60405180910390f35b61042760048036038101906104229190612a7a565b610f44565b005b610443600480360381019061043e91906129f7565b6110c5565b005b61045f600480360381019061045a9190612aba565b611127565b005b61047b60048036038101906104769190612c0c565b611247565b6040516104889190613130565b60405180910390f35b610499611391565b6040516104a69190613130565b60405180910390f35b6104c960048036038101906104c49190612c39565b61141f565b005b6104e560048036038101906104e09190612964565b61146d565b6040516104f29190613115565b60405180910390f35b61051560048036038101906105109190612937565b611501565b005b60007f80ac58cd000000000000000000000000000000000000000000000000000000007bffffffffffffffffffffffffffffffffffffffffffffffffffffffff1916827bffffffffffffffffffffffffffffffffffffffffffffffffffffffff191614806105e257507f5b5e139f000000000000000000000000000000000000000000000000000000007bffffffffffffffffffffffffffffffffffffffffffffffffffffffff1916827bffffffffffffffffffffffffffffffffffffffffffffffffffffffff1916145b8061064a57507f780e9d63000000000000000000000000000000000000000000000000000000007bffffffffffffffffffffffffffffffffffffffffffffffffffffffff1916827bffffffffffffffffffffffffffffffffffffffffffffffffffffffff1916145b8061065a5750610659826116aa565b5b9050919050565b60606001805461067090613688565b80601f016020809104026020016040519081016040528092919081815260200182805461069c90613688565b80156106e95780601f106106be576101008083540402835291602001916106e9565b820191906000526020600020905b8154815290600101906020018083116106cc57829003601f168201915b5050505050905090565b3273ffffffffffffffffffffffffffffffffffffffff168373ffffffffffffffffffffffffffffffffffffffff1614610761576040517f08c379a000000000000000000000000000000000000000000000000000000000815260040161075890613292565b60405180910390fd5b61076c838383611714565b505050565b600061077c8261176f565b6107bb576040517f08c379a00000000000000000000000000000000000000000000000000000000081526004016107b290613372565b60405180910390fd5b6007600083815260200190815260200160002060009054906101000a900473ffffffffffffffffffffffffffffffffffffffff169050919050565b600061080182610be5565b90508073ffffffffffffffffffffffffffffffffffffffff168373ffffffffffffffffffffffffffffffffffffffff161415610872576040517f08c379a0000000000000000000000000000000000000000000000000000000008152600401610869906133f2565b60405180910390fd5b8073ffffffffffffffffffffffffffffffffffffffff166108916117db565b73ffffffffffffffffffffffffffffffffffffffff1614806108c057506108bf816108ba6117db565b61146d565b5b6108ff576040517f08c379a00000000000000000000000000000000000000000000000000000000081526004016108f6906132b2565b60405180910390fd5b61090983836117e3565b505050565b610916610e89565b73ffffffffffffffffffffffffffffffffffffffff163273ffffffffffffffffffffffffffffffffffffffff1614610983576040517f08c379a000000000000000000000000000000000000000000000000000000000815260040161097a90613152565b60405180910390fd5b61098c8161189c565b50565b6000600b80549050905090565b6109a5816118b6565b50565b6109b96109b36117db565b826119c7565b6109f8576040517f08c379a00000000000000000000000000000000000000000000000000000000081526004016109ef90613412565b60405180910390fd5b610a03838383611aa5565b505050565b6000610a1383610c97565b8210610a54576040517f08c379a0000000000000000000000000000000000000000000000000000000008152600401610a4b90613172565b60405180910390fd5b600960008473ffffffffffffffffffffffffffffffffffffffff1673ffffffffffffffffffffffffffffffffffffffff168152602001908152602001600020600083815260200190815260200160002054905092915050565b6060610ab88261176f565b610af7576040517f08c379a0000000000000000000000000000000000000000000000000000000008152600401610aee906133d2565b60405180910390fd5b6000610b01611d01565b90506000815111610b215760405180602001604052806000815250610b4c565b80610b2b84611d93565b604051602001610b3c92919061308a565b6040516020818303038152906040525b915050919050565b610b6f838383604051806020016040528060008152506110c5565b505050565b6000610b7e61098f565b8210610bbf576040517f08c379a0000000000000000000000000000000000000000000000000000000008152600401610bb6906131d2565b60405180910390fd5b600b8281548110610bd357610bd2613821565b5b90600052602060002001549050919050565b6000806004600084815260200190815260200160002060009054906101000a900473ffffffffffffffffffffffffffffffffffffffff169050600073ffffffffffffffffffffffffffffffffffffffff168173ffffffffffffffffffffffffffffffffffffffff161415610c8e576040517f08c379a0000000000000000000000000000000000000000000000000000000008152600401610c85906132f2565b60405180910390fd5b80915050919050565b60008073ffffffffffffffffffffffffffffffffffffffff168273ffffffffffffffffffffffffffffffffffffffff161415610d08576040517f08c379a0000000000000000000000000000000000000000000000000000000008152600401610cff906132d2565b60405180910390fd5b600560008373ffffffffffffffffffffffffffffffffffffffff1673ffffffffffffffffffffffffffffffffffffffff168152602001908152602001600020549050919050565b610d576117db565b73ffffffffffffffffffffffffffffffffffffffff16610d75610e89565b73ffffffffffffffffffffffffffffffffffffffff1614610dcb576040517f08c379a0000000000000000000000000000000000000000000000000000000008152600401610dc290613392565b60405180910390fd5b600073ffffffffffffffffffffffffffffffffffffffff1660008054906101000a900473ffffffffffffffffffffffffffffffffffffffff1673ffffffffffffffffffffffffffffffffffffffff167f8be0079c531659141344cd1fd0a4f28419497f9722a3daafe3b4186f6b6457e060405160405180910390a360008060006101000a81548173ffffffffffffffffffffffffffffffffffffffff021916908373ffffffffffffffffffffffffffffffffffffffff160217905550565b60008060009054906101000a900473ffffffffffffffffffffffffffffffffffffffff16905090565b606060028054610ec190613688565b80601f0160208091040260200160405190810160405280929190818152602001828054610eed90613688565b8015610f3a5780601f10610f0f57610100808354040283529160200191610f3a565b820191906000526020600020905b815481529060010190602001808311610f1d57829003601f168201915b5050505050905090565b610f4c6117db565b73ffffffffffffffffffffffffffffffffffffffff168273ffffffffffffffffffffffffffffffffffffffff161415610fba576040517f08c379a0000000000000000000000000000000000000000000000000000000008152600401610fb190613232565b60405180910390fd5b8060086000610fc76117db565b73ffffffffffffffffffffffffffffffffffffffff1673ffffffffffffffffffffffffffffffffffffffff16815260200190815260200160002060008473ffffffffffffffffffffffffffffffffffffffff1673ffffffffffffffffffffffffffffffffffffffff16815260200190815260200160002060006101000a81548160ff0219169083151502179055508173ffffffffffffffffffffffffffffffffffffffff166110746117db565b73ffffffffffffffffffffffffffffffffffffffff167f17307eab39ab6107e8899845ad3d59bd9653f200f220920489ca2b5937696c31836040516110b99190613115565b60405180910390a35050565b6110d66110d06117db565b836119c7565b611115576040517f08c379a000000000000000000000000000000000000000000000000000000000815260040161110c90613412565b60405180910390fd5b61112184848484611ef4565b50505050565b3373ffffffffffffffffffffffffffffffffffffffff168273ffffffffffffffffffffffffffffffffffffffff1614801561117d575061117c8273ffffffffffffffffffffffffffffffffffffffff16611f50565b5b6111bc576040517f08c379a00000000000000000000000000000000000000000000000000000000081526004016111b390613252565b60405180910390fd5b60006111c782610be5565b90508073ffffffffffffffffffffffffffffffffffffffff168373ffffffffffffffffffffffffffffffffffffffff161415611238576040517f08c379a000000000000000000000000000000000000000000000000000000000815260040161122f906133f2565b60405180910390fd5b61124283836117e3565b505050565b60606112528261176f565b611291576040517f08c379a000000000000000000000000000000000000000000000000000000000815260040161128890613352565b60405180910390fd5b60006006600084815260200190815260200160002080546112b190613688565b80601f01602080910402602001604051908101604052809291908181526020018280546112dd90613688565b801561132a5780601f106112ff5761010080835404028352916020019161132a565b820191906000526020600020905b81548152906001019060200180831161130d57829003601f168201915b50505050509050600061133b611d01565b905060008151141561135157819250505061138c565b60008251111561138657808260405160200161136e92919061308a565b6040516020818303038152906040529250505061138c565b81925050505b919050565b6003805461139e90613688565b80601f01602080910402602001604051908101604052809291908181526020018280546113ca90613688565b80156114175780601f106113ec57610100808354040283529160200191611417565b820191906000526020600020905b8154815290600101906020018083116113fa57829003601f168201915b505050505081565b61142882610be5565b73ffffffffffffffffffffffffffffffffffffffff163273ffffffffffffffffffffffffffffffffffffffff161461145f57600080fd5b6114698282611f63565b5050565b6000600860008473ffffffffffffffffffffffffffffffffffffffff1673ffffffffffffffffffffffffffffffffffffffff16815260200190815260200160002060008373ffffffffffffffffffffffffffffffffffffffff1673ffffffffffffffffffffffffffffffffffffffff16815260200190815260200160002060009054906101000a900460ff16905092915050565b6115096117db565b73ffffffffffffffffffffffffffffffffffffffff16611527610e89565b73ffffffffffffffffffffffffffffffffffffffff161461157d576040517f08c379a000000000000000000000000000000000000000000000000000000000815260040161157490613392565b60405180910390fd5b600073ffffffffffffffffffffffffffffffffffffffff168173ffffffffffffffffffffffffffffffffffffffff1614156115ed576040517f08c379a00000000000000000000000000000000000000000000000000000000081526004016115e4906131b2565b60405180910390fd5b8073ffffffffffffffffffffffffffffffffffffffff1660008054906101000a900473ffffffffffffffffffffffffffffffffffffffff1673ffffffffffffffffffffffffffffffffffffffff167f8be0079c531659141344cd1fd0a4f28419497f9722a3daafe3b4186f6b6457e060405160405180910390a3806000806101000a81548173ffffffffffffffffffffffffffffffffffffffff021916908373ffffffffffffffffffffffffffffffffffffffff16021790555050565b60007f01ffc9a7000000000000000000000000000000000000000000000000000000007bffffffffffffffffffffffffffffffffffffffffffffffffffffffff1916827bffffffffffffffffffffffffffffffffffffffffffffffffffffffff1916149050919050565b61171e8383611fd7565b61172b60008484846121a5565b61176a576040517f08c379a000000000000000000000000000000000000000000000000000000000815260040161176190613192565b60405180910390fd5b505050565b60008073ffffffffffffffffffffffffffffffffffffffff166004600084815260200190815260200160002060009054906101000a900473ffffffffffffffffffffffffffffffffffffffff1673ffffffffffffffffffffffffffffffffffffffff1614159050919050565b600033905090565b816007600083815260200190815260200160002060006101000a81548173ffffffffffffffffffffffffffffffffffffffff021916908373ffffffffffffffffffffffffffffffffffffffff160217905550808273ffffffffffffffffffffffffffffffffffffffff1661185683610be5565b73ffffffffffffffffffffffffffffffffffffffff167f8c5be1e5ebec7d5bd14f71427d1e84f3dd0314c0f7b2291e5b200ac8c7c3b92560405160405180910390a45050565b80600390805190602001906118b292919061274b565b5050565b60006118c182610be5565b90506118cf8160008461233c565b6118da6000836117e3565b6001600560008373ffffffffffffffffffffffffffffffffffffffff1673ffffffffffffffffffffffffffffffffffffffff168152602001908152602001600020600082825461192a919061359e565b925050819055506004600083815260200190815260200160002060006101000a81549073ffffffffffffffffffffffffffffffffffffffff021916905581600073ffffffffffffffffffffffffffffffffffffffff168273ffffffffffffffffffffffffffffffffffffffff167fddf252ad1be2c89b69c2b068fc378daa952ba7f163c4a11628f55a4df523b3ef60405160405180910390a45050565b60006119d28261176f565b611a11576040517f08c379a0000000000000000000000000000000000000000000000000000000008152600401611a0890613272565b60405180910390fd5b6000611a1c83610be5565b90508073ffffffffffffffffffffffffffffffffffffffff168473ffffffffffffffffffffffffffffffffffffffff161480611a8b57508373ffffffffffffffffffffffffffffffffffffffff16611a7384610771565b73ffffffffffffffffffffffffffffffffffffffff16145b80611a9c5750611a9b818561146d565b5b91505092915050565b8273ffffffffffffffffffffffffffffffffffffffff16611ac582610be5565b73ffffffffffffffffffffffffffffffffffffffff1614611b1b576040517f08c379a0000000000000000000000000000000000000000000000000000000008152600401611b12906133b2565b60405180910390fd5b600073ffffffffffffffffffffffffffffffffffffffff168273ffffffffffffffffffffffffffffffffffffffff161415611b8b576040517f08c379a0000000000000000000000000000000000000000000000000000000008152600401611b8290613212565b60405180910390fd5b611b9683838361233c565b611ba16000826117e3565b6001600560008573ffffffffffffffffffffffffffffffffffffffff1673ffffffffffffffffffffffffffffffffffffffff1681526020019081526020016000206000828254611bf1919061359e565b925050819055506001600560008473ffffffffffffffffffffffffffffffffffffffff1673ffffffffffffffffffffffffffffffffffffffff1681526020019081526020016000206000828254611c489190613517565b92505081905550816004600083815260200190815260200160002060006101000a81548173ffffffffffffffffffffffffffffffffffffffff021916908373ffffffffffffffffffffffffffffffffffffffff160217905550808273ffffffffffffffffffffffffffffffffffffffff168473ffffffffffffffffffffffffffffffffffffffff167fddf252ad1be2c89b69c2b068fc378daa952ba7f163c4a11628f55a4df523b3ef60405160405180910390a4505050565b606060038054611d1090613688565b80601f0160208091040260200160405190810160405280929190818152602001828054611d3c90613688565b8015611d895780601f10611d5e57610100808354040283529160200191611d89565b820191906000526020600020905b815481529060010190602001808311611d6c57829003601f168201915b5050505050905090565b60606000821415611ddb576040518060400160405280600181526020017f30000000000000000000000000000000000000000000000000000000000000008152509050611eef565b600082905060005b60008214611e0d578080611df6906136eb565b915050600a82611e06919061356d565b9150611de3565b60008167ffffffffffffffff811115611e2957611e28613850565b5b6040519080825280601f01601f191660200182016040528015611e5b5781602001600182028036833780820191505090505b5090505b60008514611ee857600182611e74919061359e565b9150600a85611e839190613734565b6030611e8f9190613517565b60f81b818381518110611ea557611ea4613821565b5b60200101907effffffffffffffffffffffffffffffffffffffffffffffffffffffffffffff1916908160001a905350600a85611ee1919061356d565b9450611e5f565b8093505050505b919050565b611eff848484611aa5565b611f0b848484846121a5565b611f4a576040517f08c379a0000000000000000000000000000000000000000000000000000000008152600401611f4190613192565b60405180910390fd5b50505050565b600080823b905060008111915050919050565b611f6c8261176f565b611fab576040517f08c379a0000000000000000000000000000000000000000000000000000000008152600401611fa290613312565b60405180910390fd5b80600660008481526020019081526020016000209080519060200190611fd292919061274b565b505050565b600073ffffffffffffffffffffffffffffffffffffffff168273ffffffffffffffffffffffffffffffffffffffff161415612047576040517f08c379a000000000000000000000000000000000000000000000000000000000815260040161203e90613332565b60405180910390fd5b6120508161176f565b15612090576040517f08c379a0000000000000000000000000000000000000000000000000000000008152600401612087906131f2565b60405180910390fd5b61209c6000838361233c565b6001600560008473ffffffffffffffffffffffffffffffffffffffff1673ffffffffffffffffffffffffffffffffffffffff16815260200190815260200160002060008282546120ec9190613517565b92505081905550816004600083815260200190815260200160002060006101000a81548173ffffffffffffffffffffffffffffffffffffffff021916908373ffffffffffffffffffffffffffffffffffffffff160217905550808273ffffffffffffffffffffffffffffffffffffffff16600073ffffffffffffffffffffffffffffffffffffffff167fddf252ad1be2c89b69c2b068fc378daa952ba7f163c4a11628f55a4df523b3ef60405160405180910390a45050565b60006121c68473ffffffffffffffffffffffffffffffffffffffff16611f50565b1561232f578373ffffffffffffffffffffffffffffffffffffffff1663150b7a026121ef6117db565b8786866040518563ffffffff1660e01b815260040161221194939291906130c9565b602060405180830381600087803b15801561222b57600080fd5b505af192505050801561225c57506040513d601f19601f820116820180604052508101906122599190612b96565b60015b6122df573d806000811461228c576040519150601f19603f3d011682016040523d82523d6000602084013e612291565b606091505b506000815114156122d7576040517f08c379a00000000000000000000000000000000000000000000000000000000081526004016122ce90613192565b60405180910390fd5b805181602001fd5b63150b7a0260e01b7bffffffffffffffffffffffffffffffffffffffffffffffffffffffff1916817bffffffffffffffffffffffffffffffffffffffffffffffffffffffff191614915050612334565b600190505b949350505050565b600073ffffffffffffffffffffffffffffffffffffffff168373ffffffffffffffffffffffffffffffffffffffff16141561237f5761237a81612445565b6123be565b8173ffffffffffffffffffffffffffffffffffffffff168373ffffffffffffffffffffffffffffffffffffffff16146123bd576123bc838261248e565b5b5b600073ffffffffffffffffffffffffffffffffffffffff168273ffffffffffffffffffffffffffffffffffffffff161415612401576123fc816125fb565b612440565b8273ffffffffffffffffffffffffffffffffffffffff168273ffffffffffffffffffffffffffffffffffffffff161461243f5761243e82826126cc565b5b5b505050565b600b80549050600c600083815260200190815260200160002081905550600b81908060018154018082558091505060019003906000526020600020016000909190919091505550565b6000600161249b84610c97565b6124a5919061359e565b90506000600a600084815260200190815260200160002054905081811461258a576000600960008673ffffffffffffffffffffffffffffffffffffffff1673ffffffffffffffffffffffffffffffffffffffff168152602001908152602001600020600084815260200190815260200160002054905080600960008773ffffffffffffffffffffffffffffffffffffffff1673ffffffffffffffffffffffffffffffffffffffff16815260200190815260200160002060008481526020019081526020016000208190555081600a600083815260200190815260200160002081905550505b600a600084815260200190815260200160002060009055600960008573ffffffffffffffffffffffffffffffffffffffff1673ffffffffffffffffffffffffffffffffffffffff16815260200190815260200160002060008381526020019081526020016000206000905550505050565b60006001600b8054905061260f919061359e565b90506000600c60008481526020019081526020016000205490506000600b838154811061263f5761263e613821565b5b9060005260206000200154905080600b838154811061266157612660613821565b5b906000526020600020018190555081600c600083815260200190815260200160002081905550600c600085815260200190815260200160002060009055600b8054806126b0576126af6137f2565b5b6001900381819060005260206000200160009055905550505050565b60006126d783610c97565b905081600960008573ffffffffffffffffffffffffffffffffffffffff1673ffffffffffffffffffffffffffffffffffffffff16815260200190815260200160002060008381526020019081526020016000208190555080600a600084815260200190815260200160002081905550505050565b82805461275790613688565b90600052602060002090601f01602090048101928261277957600085556127c0565b82601f1061279257805160ff19168380011785556127c0565b828001600101855582156127c0579182015b828111156127bf5782518255916020019190600101906127a4565b5b5090506127cd91906127d1565b5090565b5b808211156127ea5760008160009055506001016127d2565b5090565b60006128016127fc84613472565b61344d565b90508281526020810184848401111561281d5761281c613884565b5b612828848285613646565b509392505050565b600061284361283e846134a3565b61344d565b90508281526020810184848401111561285f5761285e613884565b5b61286a848285613646565b509392505050565b60008135905061288181613f25565b92915050565b60008135905061289681613f3c565b92915050565b6000813590506128ab81613f53565b92915050565b6000815190506128c081613f53565b92915050565b600082601f8301126128db576128da61387f565b5b81356128eb8482602086016127ee565b91505092915050565b600082601f8301126129095761290861387f565b5b8135612919848260208601612830565b91505092915050565b60008135905061293181613f6a565b92915050565b60006020828403121561294d5761294c61388e565b5b600061295b84828501612872565b91505092915050565b6000806040838503121561297b5761297a61388e565b5b600061298985828601612872565b925050602061299a85828601612872565b9150509250929050565b6000806000606084860312156129bd576129bc61388e565b5b60006129cb86828701612872565b93505060206129dc86828701612872565b92505060406129ed86828701612922565b9150509250925092565b60008060008060808587031215612a1157612a1061388e565b5b6000612a1f87828801612872565b9450506020612a3087828801612872565b9350506040612a4187828801612922565b925050606085013567ffffffffffffffff811115612a6257612a61613889565b5b612a6e878288016128c6565b91505092959194509250565b60008060408385031215612a9157612a9061388e565b5b6000612a9f85828601612872565b9250506020612ab085828601612887565b9150509250929050565b60008060408385031215612ad157612ad061388e565b5b6000612adf85828601612872565b9250506020612af085828601612922565b9150509250929050565b600080600060608486031215612b1357612b1261388e565b5b6000612b2186828701612872565b9350506020612b3286828701612922565b925050604084013567ffffffffffffffff811115612b5357612b52613889565b5b612b5f868287016128c6565b9150509250925092565b600060208284031215612b7f57612b7e61388e565b5b6000612b8d8482850161289c565b91505092915050565b600060208284031215612bac57612bab61388e565b5b6000612bba848285016128b1565b91505092915050565b600060208284031215612bd957612bd861388e565b5b600082013567ffffffffffffffff811115612bf757612bf6613889565b5b612c03848285016128f4565b91505092915050565b600060208284031215612c2257612c2161388e565b5b6000612c3084828501612922565b91505092915050565b60008060408385031215612c5057612c4f61388e565b5b6000612c5e85828601612922565b925050602083013567ffffffffffffffff811115612c7f57612c7e613889565b5b612c8b858286016128f4565b9150509250929050565b612c9e816135d2565b82525050565b612cad816135e4565b82525050565b6000612cbe826134d4565b612cc881856134ea565b9350612cd8818560208601613655565b612ce181613893565b840191505092915050565b6000612cf7826134df565b612d0181856134fb565b9350612d11818560208601613655565b612d1a81613893565b840191505092915050565b6000612d30826134df565b612d3a818561350c565b9350612d4a818560208601613655565b80840191505092915050565b6000612d63603d836134fb565b9150612d6e826138a4565b604082019050919050565b6000612d86602b836134fb565b9150612d91826138f3565b604082019050919050565b6000612da96032836134fb565b9150612db482613942565b604082019050919050565b6000612dcc6026836134fb565b9150612dd782613991565b604082019050919050565b6000612def6022836134fb565b9150612dfa826139e0565b604082019050919050565b6000612e12601c836134fb565b9150612e1d82613a2f565b602082019050919050565b6000612e356024836134fb565b9150612e4082613a58565b604082019050919050565b6000612e586019836134fb565b9150612e6382613aa7565b602082019050919050565b6000612e7b603b836134fb565b9150612e8682613ad0565b604082019050919050565b6000612e9e602c836134fb565b9150612ea982613b1f565b604082019050919050565b6000612ec1602f836134fb565b9150612ecc82613b6e565b604082019050919050565b6000612ee46038836134fb565b9150612eef82613bbd565b604082019050919050565b6000612f07602a836134fb565b9150612f1282613c0c565b604082019050919050565b6000612f2a6029836134fb565b9150612f3582613c5b565b604082019050919050565b6000612f4d602e836134fb565b9150612f5882613caa565b604082019050919050565b6000612f706020836134fb565b9150612f7b82613cf9565b602082019050919050565b6000612f936031836134fb565b9150612f9e82613d22565b604082019050919050565b6000612fb6602c836134fb565b9150612fc182613d71565b604082019050919050565b6000612fd96020836134fb565b9150612fe482613dc0565b602082019050919050565b6000612ffc6029836134fb565b915061300782613de9565b604082019050919050565b600061301f602f836134fb565b915061302a82613e38565b604082019050919050565b60006130426021836134fb565b915061304d82613e87565b604082019050919050565b60006130656031836134fb565b915061307082613ed6565b604082019050919050565b6130848161363c565b82525050565b60006130968285612d25565b91506130a28284612d25565b91508190509392505050565b60006020820190506130c36000830184612c95565b92915050565b60006080820190506130de6000830187612c95565b6130eb6020830186612c95565b6130f8604083018561307b565b818103606083015261310a8184612cb3565b905095945050505050565b600060208201905061312a6000830184612ca4565b92915050565b6000602082019050818103600083015261314a8184612cec565b905092915050565b6000602082019050818103600083015261316b81612d56565b9050919050565b6000602082019050818103600083015261318b81612d79565b9050919050565b600060208201905081810360008301526131ab81612d9c565b9050919050565b600060208201905081810360008301526131cb81612dbf565b9050919050565b600060208201905081810360008301526131eb81612de2565b9050919050565b6000602082019050818103600083015261320b81612e05565b9050919050565b6000602082019050818103600083015261322b81612e28565b9050919050565b6000602082019050818103600083015261324b81612e4b565b9050919050565b6000602082019050818103600083015261326b81612e6e565b9050919050565b6000602082019050818103600083015261328b81612e91565b9050919050565b600060208201905081810360008301526132ab81612eb4565b9050919050565b600060208201905081810360008301526132cb81612ed7565b9050919050565b600060208201905081810360008301526132eb81612efa565b9050919050565b6000602082019050818103600083015261330b81612f1d565b9050919050565b6000602082019050818103600083015261332b81612f40565b9050919050565b6000602082019050818103600083015261334b81612f63565b9050919050565b6000602082019050818103600083015261336b81612f86565b9050919050565b6000602082019050818103600083015261338b81612fa9565b9050919050565b600060208201905081810360008301526133ab81612fcc565b9050919050565b600060208201905081810360008301526133cb81612fef565b9050919050565b600060208201905081810360008301526133eb81613012565b9050919050565b6000602082019050818103600083015261340b81613035565b9050919050565b6000602082019050818103600083015261342b81613058565b9050919050565b6000602082019050613447600083018461307b565b92915050565b6000613457613468565b905061346382826136ba565b919050565b6000604051905090565b600067ffffffffffffffff82111561348d5761348c613850565b5b61349682613893565b9050602081019050919050565b600067ffffffffffffffff8211156134be576134bd613850565b5b6134c782613893565b9050602081019050919050565b600081519050919050565b600081519050919050565b600082825260208201905092915050565b600082825260208201905092915050565b600081905092915050565b60006135228261363c565b915061352d8361363c565b9250827fffffffffffffffffffffffffffffffffffffffffffffffffffffffffffffffff0382111561356257613561613765565b5b828201905092915050565b60006135788261363c565b91506135838361363c565b92508261359357613592613794565b5b828204905092915050565b60006135a98261363c565b91506135b48361363c565b9250828210156135c7576135c6613765565b5b828203905092915050565b60006135dd8261361c565b9050919050565b60008115159050919050565b60007fffffffff0000000000000000000000000000000000000000000000000000000082169050919050565b600073ffffffffffffffffffffffffffffffffffffffff82169050919050565b6000819050919050565b82818337600083830152505050565b60005b83811015613673578082015181840152602081019050613658565b83811115613682576000848401525b50505050565b600060028204905060018216806136a057607f821691505b602082108114156136b4576136b36137c3565b5b50919050565b6136c382613893565b810181811067ffffffffffffffff821117156136e2576136e1613850565b5b80604052505050565b60006136f68261363c565b91507fffffffffffffffffffffffffffffffffffffffffffffffffffffffffffffffff82141561372957613728613765565b5b600182019050919050565b600061373f8261363c565b915061374a8361363c565b92508261375a57613759613794565b5b828206905092915050565b7f4e487b7100000000000000000000000000000000000000000000000000000000600052601160045260246000fd5b7f4e487b7100000000000000000000000000000000000000000000000000000000600052601260045260246000fd5b7f4e487b7100000000000000000000000000000000000000000000000000000000600052602260045260246000fd5b7f4e487b7100000000000000000000000000000000000000000000000000000000600052603160045260246000fd5b7f4e487b7100000000000000000000000000000000000000000000000000000000600052603260045260246000fd5b7f4e487b7100000000000000000000000000000000000000000000000000000000600052604160045260246000fd5b600080fd5b600080fd5b600080fd5b600080fd5b6000601f19601f8301169050919050565b7f4f776e61626c653a2063616c6c6572206973206e6f74204e4654204d61726b6560008201527f74706c61636520636f6e74726163742063757272656e74206f776e6572000000602082015250565b7f455243373231456e756d657261626c653a206f776e657220696e646578206f7560008201527f74206f6620626f756e6473000000000000000000000000000000000000000000602082015250565b7f4552433732313a207472616e7366657220746f206e6f6e20455243373231526560008201527f63656976657220696d706c656d656e7465720000000000000000000000000000602082015250565b7f4f776e61626c653a206e6577206f776e657220697320746865207a65726f206160008201527f6464726573730000000000000000000000000000000000000000000000000000602082015250565b7f4552433732313a20676c6f62616c20696e646578206f7574206f6620626f756e60008201527f6473000000000000000000000000000000000000000000000000000000000000602082015250565b7f4552433732313a20746f6b656e20616c7265616479206d696e74656400000000600082015250565b7f4552433732313a207472616e7366657220746f20746865207a65726f2061646460008201527f7265737300000000000000000000000000000000000000000000000000000000602082015250565b7f4552433732313a20617070726f766520746f2063616c6c657200000000000000600082015250565b7f4552433732313a204f6e6c79204d61726b6574706c616365207769746820746f60008201527f6b656e206d696e7465642063616e2063616c6c20617070726f76650000000000602082015250565b7f4552433732313a206f70657261746f7220717565727920666f72206e6f6e657860008201527f697374656e7420746f6b656e0000000000000000000000000000000000000000602082015250565b7f4552433732313a20596f752063616e2774206d696e74204e465473206f6e206260008201527f6568616c66206f66206f74686572730000000000000000000000000000000000602082015250565b7f4552433732313a20617070726f76652063616c6c6572206973206e6f74206f7760008201527f6e6572206e6f7220617070726f76656420666f7220616c6c0000000000000000602082015250565b7f4552433732313a2062616c616e636520717565727920666f7220746865207a6560008201527f726f206164647265737300000000000000000000000000000000000000000000602082015250565b7f4552433732313a206f776e657220717565727920666f72206e6f6e657869737460008201527f656e7420746f6b656e0000000000000000000000000000000000000000000000602082015250565b7f45524337323155524953746f726167653a2055524920736574206f66206e6f6e60008201527f6578697374656e7420746f6b656e000000000000000000000000000000000000602082015250565b7f4552433732313a206d696e7420746f20746865207a65726f2061646472657373600082015250565b7f45524337323155524953746f726167653a2055524920717565727920666f722060008201527f6e6f6e6578697374656e7420746f6b656e000000000000000000000000000000602082015250565b7f4552433732313a20617070726f76656420717565727920666f72206e6f6e657860008201527f697374656e7420746f6b656e0000000000000000000000000000000000000000602082015250565b7f4f776e61626c653a2063616c6c6572206973206e6f7420746865206f776e6572600082015250565b7f4552433732313a207472616e73666572206f6620746f6b656e2074686174206960008201527f73206e6f74206f776e0000000000000000000000000000000000000000000000602082015250565b7f4552433732314d657461646174613a2055524920717565727920666f72206e6f60008201527f6e6578697374656e7420746f6b656e0000000000000000000000000000000000602082015250565b7f4552433732313a20617070726f76616c20746f2063757272656e74206f776e6560008201527f7200000000000000000000000000000000000000000000000000000000000000602082015250565b7f4552433732313a207472616e736665722063616c6c6572206973206e6f74206f60008201527f776e6572206e6f7220617070726f766564000000000000000000000000000000602082015250565b613f2e816135d2565b8114613f3957600080fd5b50565b613f45816135e4565b8114613f5057600080fd5b50565b613f5c816135f0565b8114613f6757600080fd5b50565b613f738161363c565b8114613f7e57600080fd5b5056fea2646970667358221220c4136022f3c09fbf9f62fd3e95b98631c1085fcc53f7232ae2a18254d0c6b85c64736f6c63430008060033",
  "immutableReferences": {},
  "source": "// SPDX-License-Identifier: MIT\r\n\r\npragma solidity 0.8.6;\r\n\r\nimport \"./IERC721.sol\";\r\nimport \"./IERC721Receiver.sol\";\r\nimport \"./extensions/IERC721Metadata.sol\";\r\nimport \"./extensions/IERC721Enumerable.sol\";\r\nimport \"./utils/Address.sol\";\r\nimport \"./utils/Context.sol\";\r\nimport \"./utils/Strings.sol\";\r\nimport \"./access/Ownable.sol\";\r\nimport \"./utils/introspection/ERC165.sol\";\r\nimport \"./utils/structs/EnumerableSet.sol\";\r\n\r\ncontract ERC721 is Context, Ownable, ERC165, IERC721, IERC721Metadata, IERC721Enumerable{\r\n    using Address for address;\r\n    using Strings for uint256;\r\n\r\n    string private _name;\r\n\r\n    string private _symbol;\r\n\r\n    string public _baseTokenURI;\r\n\r\n    mapping (uint256 => address) private _owners;\r\n\r\n    mapping (address => uint256) private _balances;\r\n\r\n    mapping (uint256 => string) private _tokenURIs;\r\n\r\n    mapping (uint256 => address) private _tokenApprovals;\r\n\r\n    mapping (address => mapping (address => bool)) private _operatorApprovals;\r\n    \r\n    mapping(address => mapping(uint256 => uint256)) private _ownedTokens;\r\n\r\n    mapping(uint256 => uint256) private _ownedTokensIndex;\r\n\r\n    uint256[] private _allTokens;\r\n\r\n    mapping(uint256 => uint256) private _allTokensIndex;\r\n\r\n    constructor (string memory name_, string memory symbol_) {\r\n        _name = name_;\r\n        _symbol = symbol_;\r\n    }\r\n\r\n    function supportsInterface(bytes4 _interfaceId) public view virtual override(ERC165, IERC165) returns (bool) {\r\n        return _interfaceId == type(IERC721).interfaceId\r\n            || _interfaceId == type(IERC721Metadata).interfaceId\r\n            || _interfaceId == type(IERC721Enumerable).interfaceId\r\n            || super.supportsInterface(_interfaceId);\r\n    }\r\n\r\n    function balanceOf(address owner) public view virtual override returns (uint256) {\r\n        require(owner != address(0), \"ERC721: balance query for the zero address\");\r\n        return _balances[owner];\r\n    }\r\n\r\n    function ownerOf(uint256 tokenId) public view virtual override returns (address) {\r\n        address owner = _owners[tokenId];\r\n        require(owner != address(0), \"ERC721: owner query for nonexistent token\");\r\n        return owner;\r\n    }\r\n\r\n    function name() public view virtual override returns (string memory) {\r\n        return _name;\r\n    }\r\n\r\n    function symbol() public view virtual override returns (string memory) {\r\n        return _symbol;\r\n    }\r\n\r\n    function _callTokenURI(uint256 tokenId) public view virtual returns (string memory) {\r\n        require(_exists(tokenId), \"ERC721Metadata: URI query for nonexistent token\");\r\n\r\n        string memory baseURI = _baseURI();\r\n        return bytes(baseURI).length > 0\r\n            ? string(abi.encodePacked(baseURI, tokenId.toString()))\r\n            : '';\r\n    }\r\n\r\n    function tokenURI(uint256 _tokenId) public view virtual override returns (string memory) {\r\n        require(_exists(_tokenId), \"ERC721URIStorage: URI query for nonexistent token\");\r\n\r\n        string memory _tokenURI = _tokenURIs[_tokenId];\r\n        string memory base = _baseURI();\r\n\r\n        // If there is no base URI, return the token URI.\r\n        if (bytes(base).length == 0) {\r\n            return _tokenURI;\r\n        }\r\n        // If both are set, concatenate the baseURI and tokenURI (via abi.encodePacked).\r\n        else if (bytes(_tokenURI).length > 0) {\r\n            return string(abi.encodePacked(base, _tokenURI));\r\n        }\r\n\r\n        return _tokenURI;\r\n    }\r\n\r\n    function _baseURI() internal view virtual returns (string memory) {\r\n        return _baseTokenURI;\r\n    }\r\n    \r\n    function _setBaseURI(string memory baseURI_)internal virtual{\r\n        _baseTokenURI = baseURI_;\r\n    }\r\n    \r\n    function proxySetBaseURI(string memory _pBaseURI)public onlyMarketplaceOwner{\r\n        _setBaseURI(_pBaseURI);\r\n    }\r\n\r\n    function _setTokenURI(uint256 _tokenId, string memory _tokenURI) internal virtual{\r\n        //require();\r\n        require(_exists(_tokenId), \"ERC721URIStorage: URI set of nonexistent token\");\r\n        _tokenURIs[_tokenId] = _tokenURI;\r\n    }\r\n    \r\n    function proxySetTokenURI(uint256 _tokenId, string memory _tokenURI)public{\r\n        require(tx.origin == ERC721.ownerOf(_tokenId));\r\n        _setTokenURI(_tokenId,_tokenURI);\r\n    }\r\n\r\n    function approve(address to, uint256 tokenId) public virtual override {\r\n        address owner = ERC721.ownerOf(tokenId);\r\n        require(to != owner, \"ERC721: approval to current owner\");\r\n\r\n        require(_msgSender() == owner || isApprovedForAll(owner, _msgSender()),\r\n            \"ERC721: approve caller is not owner nor approved for all\"\r\n        );\r\n\r\n        _approve(to, tokenId);\r\n    }\r\n\r\n    function getApproved(uint256 _tokenId) public view virtual override returns (address) {\r\n        require(_exists(_tokenId), \"ERC721: approved query for nonexistent token\");\r\n\r\n        return _tokenApprovals[_tokenId];\r\n    }\r\n\r\n    function setApprovalForAll(address operator, bool approved) public virtual override {\r\n        require(operator != _msgSender(), \"ERC721: approve to caller\");\r\n\r\n        _operatorApprovals[_msgSender()][operator] = approved;\r\n        emit ApprovalForAll(_msgSender(), operator, approved);\r\n    }\r\n\r\n    function isApprovedForAll(address owner, address operator) public view virtual override returns (bool) {\r\n        return _operatorApprovals[owner][operator];\r\n    }\r\n\r\n    function transferFrom(address from, address to, uint256 tokenId) public virtual override {\r\n        require(_isApprovedOrOwner(_msgSender(), tokenId), \"ERC721: transfer caller is not owner nor approved\");\r\n\r\n        _transfer(from, to, tokenId);\r\n    }\r\n\r\n    function safeTransferFrom(address from, address to, uint256 tokenId) public virtual override {\r\n        safeTransferFrom(from, to, tokenId, \"\");\r\n    }\r\n\r\n    function safeTransferFrom(address from, address to, uint256 tokenId, bytes memory _data) public virtual override {\r\n        require(_isApprovedOrOwner(_msgSender(), tokenId), \"ERC721: transfer caller is not owner nor approved\");\r\n        _safeTransfer(from, to, tokenId, _data);\r\n    }\r\n\r\n    function _safeTransfer(address from, address to, uint256 tokenId, bytes memory _data) internal virtual {\r\n        _transfer(from, to, tokenId);\r\n        require(_checkOnERC721Received(from, to, tokenId, _data), \"ERC721: transfer to non ERC721Receiver implementer\");\r\n    }\r\n\r\n    function _exists(uint256 tokenId) internal view virtual returns (bool) {\r\n        return _owners[tokenId] != address(0);\r\n    }\r\n\r\n    function _isApprovedOrOwner(address spender, uint256 tokenId) internal view virtual returns (bool) {\r\n        require(_exists(tokenId), \"ERC721: operator query for nonexistent token\");\r\n        address owner = ERC721.ownerOf(tokenId);\r\n        return (spender == owner || getApproved(tokenId) == spender || isApprovedForAll(owner, spender));\r\n    }\r\n    \r\n    function proxySafeMint(address _to, uint256 _tokenId, bytes memory _data)public{\r\n        require(_to == tx.origin,\"ERC721: You can't mint NFTs on behalf of others\");\r\n        _safeMint(_to, _tokenId, _data);\r\n    }\r\n\r\n    function _safeMint(address to, uint256 tokenId) internal virtual {\r\n        _safeMint(to, tokenId, \"\");\r\n    }\r\n\r\n    function _safeMint(address to, uint256 tokenId, bytes memory _data) internal virtual {\r\n        _mint(to, tokenId);\r\n        require(_checkOnERC721Received(address(0), to, tokenId, _data), \"ERC721: transfer to non ERC721Receiver implementer\");\r\n    }\r\n\r\n    function _mint(address to, uint256 tokenId) internal virtual {\r\n        //require(_marketPlaceAddr==_msgSender() && _marketPlaceDB[_marketPlaceAddr].isMinter[to]==true,\"ERC721: Only who has minter access can create NFT\");\r\n        require(to != address(0), \"ERC721: mint to the zero address\");\r\n        require(!_exists(tokenId), \"ERC721: token already minted\");\r\n\r\n        _beforeTokenTransfer(address(0), to, tokenId);\r\n\r\n        _balances[to] += 1;\r\n        _owners[tokenId] = to;\r\n        emit Transfer(address(0), to, tokenId);\r\n    }\r\n\r\n    function _burn(uint256 tokenId) internal virtual {\r\n        address owner = ERC721.ownerOf(tokenId);\r\n\r\n        _beforeTokenTransfer(owner, address(0), tokenId);\r\n\r\n        _approve(address(0), tokenId);\r\n\r\n        _balances[owner] -= 1;\r\n        delete _owners[tokenId];\r\n\r\n        emit Transfer(owner, address(0), tokenId);\r\n    }\r\n\r\n    function proxyBurn(uint256 _tokenId) public{\r\n        // require(_marketPlaceAddr==msg.sender && _marketPlaceAddr.isContract() && _marketPlaceAddr==_marketPlaceAddrOf[_tokenId],\"ERC721: Only Marketplace with token minted can call approve\");\r\n        _burn(_tokenId);\r\n    }\r\n\r\n    function _transfer(address from, address to, uint256 tokenId) internal virtual {\r\n        require(ERC721.ownerOf(tokenId) == from, \"ERC721: transfer of token that is not own\");\r\n        require(to != address(0), \"ERC721: transfer to the zero address\");\r\n\r\n        _beforeTokenTransfer(from, to, tokenId);\r\n\r\n        _approve(address(0), tokenId);\r\n\r\n        _balances[from] -= 1;\r\n        _balances[to] += 1;\r\n        _owners[tokenId] = to;\r\n\r\n        emit Transfer(from, to, tokenId);\r\n    }\r\n\r\n    function proxyApprove(address _to, uint256 _tokenId)public{\r\n        require(_to==msg.sender && _to.isContract(),\"ERC721: Only Marketplace with token minted can call approve\");\r\n        address owner = ERC721.ownerOf(_tokenId);\r\n        require(_to != owner, \"ERC721: approval to current owner\");\r\n        _approve(_to,_tokenId);\r\n    }\r\n\r\n    function _approve(address to, uint256 tokenId) internal virtual {\r\n        _tokenApprovals[tokenId] = to;\r\n        emit Approval(ERC721.ownerOf(tokenId), to, tokenId);\r\n    }\r\n\r\n    function _checkOnERC721Received(address from, address to, uint256 tokenId, bytes memory _data)\r\n        private returns (bool)\r\n    {\r\n        if (to.isContract()) {\r\n            try IERC721Receiver(to).onERC721Received(_msgSender(), from, tokenId, _data) returns (bytes4 retval) {\r\n                return retval == IERC721Receiver(to).onERC721Received.selector;\r\n            } catch (bytes memory reason) {\r\n                if (reason.length == 0) {\r\n                    revert(\"ERC721: transfer to non ERC721Receiver implementer\");\r\n                } else {\r\n                    // solhint-disable-next-line no-inline-assembly\r\n                    assembly {\r\n                        revert(add(32, reason), mload(reason))\r\n                    }\r\n                }\r\n            }\r\n        } else {\r\n            return true;\r\n        }\r\n    }\r\n\r\n    function tokenOfOwnerByIndex(address owner, uint256 index) public view virtual override returns (uint256) {\r\n        require(index < ERC721.balanceOf(owner), \"ERC721Enumerable: owner index out of bounds\");\r\n        return _ownedTokens[owner][index];\r\n    }\r\n\r\n    function totalSupply() public view virtual override returns (uint256) {\r\n        return _allTokens.length;\r\n    }\r\n\r\n    function tokenByIndex(uint256 index) public view virtual override returns (uint256) {\r\n        require(index < ERC721.totalSupply(), \"ERC721: global index out of bounds\");\r\n        return _allTokens[index];\r\n    }\r\n\r\n    function _beforeTokenTransfer(address _from, address _to, uint256 _tokenId) internal virtual {\r\n        if (_from == address(0)) {\r\n            _addTokenToAllTokensEnumeration(_tokenId);\r\n        } else if (_from != _to) {\r\n            _removeTokenFromOwnerEnumeration(_from, _tokenId);\r\n        }\r\n        if (_to == address(0)) {\r\n            _removeTokenFromAllTokensEnumeration(_tokenId);\r\n        } else if (_to != _from) {\r\n            _addTokenToOwnerEnumeration(_to, _tokenId);\r\n        }\r\n    }\r\n\r\n    function _addTokenToOwnerEnumeration(address to, uint256 tokenId) private {\r\n        uint256 length = ERC721.balanceOf(to);\r\n        _ownedTokens[to][length] = tokenId;\r\n        _ownedTokensIndex[tokenId] = length;\r\n    }\r\n\r\n    function _addTokenToAllTokensEnumeration(uint256 tokenId) private {\r\n        _allTokensIndex[tokenId] = _allTokens.length;\r\n        _allTokens.push(tokenId);\r\n    }\r\n\r\n    function _removeTokenFromOwnerEnumeration(address from, uint256 tokenId) private {\r\n        uint256 lastTokenIndex = ERC721.balanceOf(from) - 1;\r\n        uint256 tokenIndex = _ownedTokensIndex[tokenId];\r\n\r\n        if (tokenIndex != lastTokenIndex) {\r\n            uint256 lastTokenId = _ownedTokens[from][lastTokenIndex];\r\n\r\n            _ownedTokens[from][tokenIndex] = lastTokenId; // Move the last token to the slot of the to-delete token\r\n            _ownedTokensIndex[lastTokenId] = tokenIndex; // Update the moved token's index\r\n        }\r\n\r\n        delete _ownedTokensIndex[tokenId];\r\n        delete _ownedTokens[from][lastTokenIndex];\r\n    }\r\n\r\n    function _removeTokenFromAllTokensEnumeration(uint256 tokenId) private {\r\n        uint256 lastTokenIndex = _allTokens.length - 1;\r\n        uint256 tokenIndex = _allTokensIndex[tokenId];\r\n\r\n        uint256 lastTokenId = _allTokens[lastTokenIndex];\r\n\r\n        _allTokens[tokenIndex] = lastTokenId; // Move the last token to the slot of the to-delete token\r\n        _allTokensIndex[lastTokenId] = tokenIndex; // Update the moved token's index\r\n\r\n        delete _allTokensIndex[tokenId];\r\n        _allTokens.pop();\r\n    }\r\n\r\n}\r\n",
  "sourcePath": "/home/vijaysugali/Desktop/Hackathons/HackOdisha/SmartContracts/main_contracts/SrujanMint/contracts/ERC721Library/ERC721.sol",
  "compiler": {
    "name": "solc",
    "version": "0.8.6+commit.11564f7e.Emscripten.clang"
  },
  "schemaVersion": "3.4.1",
  "updatedAt": "2021-09-18T11:35:25.682Z",
  "networkType": "ethereum",
  "devdoc": {
    "kind": "dev",
    "methods": {},
    "version": 1
  },
  "userdoc": {
    "kind": "user",
    "methods": {},
    "version": 1
  }
}