{
  "contractName": "NFTMarketplace",
  "abi": [
    {
      "inputs": [
        {
          "internalType": "address",
          "name": "_erc721address",
          "type": "address"
        },
        {
          "internalType": "string",
          "name": "_baseTokenURI",
          "type": "string"
        },
        {
          "internalType": "uint256",
          "name": "_serviceFee",
          "type": "uint256"
        }
      ],
      "stateMutability": "nonpayable",
      "type": "constructor"
    },
    {
      "anonymous": false,
      "inputs": [
        {
          "indexed": false,
          "internalType": "uint256",
          "name": "_tokenId",
          "type": "uint256"
        },
        {
          "indexed": false,
          "internalType": "address",
          "name": "_to",
          "type": "address"
        },
        {
          "indexed": false,
          "internalType": "bytes",
          "name": "_memo",
          "type": "bytes"
        }
      ],
      "name": "BuyNFT",
      "type": "event"
    },
    {
      "anonymous": false,
      "inputs": [
        {
          "indexed": false,
          "internalType": "address",
          "name": "_creator",
          "type": "address"
        },
        {
          "indexed": false,
          "internalType": "string",
          "name": "_title",
          "type": "string"
        },
        {
          "indexed": false,
          "internalType": "uint256",
          "name": "_royalty",
          "type": "uint256"
        },
        {
          "indexed": false,
          "internalType": "string",
          "name": "_identifier",
          "type": "string"
        },
        {
          "indexed": false,
          "internalType": "bytes",
          "name": "_memo",
          "type": "bytes"
        }
      ],
      "name": "CreateNFT",
      "type": "event"
    },
    {
      "anonymous": false,
      "inputs": [
        {
          "indexed": false,
          "internalType": "uint256",
          "name": "_tokenId",
          "type": "uint256"
        },
        {
          "indexed": false,
          "internalType": "address",
          "name": "_who",
          "type": "address"
        }
      ],
      "name": "DeleteNFT",
      "type": "event"
    },
    {
      "anonymous": false,
      "inputs": [
        {
          "indexed": false,
          "internalType": "uint256",
          "name": "_tokenId",
          "type": "uint256"
        },
        {
          "indexed": false,
          "internalType": "uint256",
          "name": "_price",
          "type": "uint256"
        }
      ],
      "name": "ListNFT",
      "type": "event"
    },
    {
      "anonymous": false,
      "inputs": [
        {
          "indexed": true,
          "internalType": "address",
          "name": "previousOwner",
          "type": "address"
        },
        {
          "indexed": true,
          "internalType": "address",
          "name": "newOwner",
          "type": "address"
        }
      ],
      "name": "OwnershipTransferred",
      "type": "event"
    },
    {
      "anonymous": false,
      "inputs": [
        {
          "indexed": false,
          "internalType": "uint256",
          "name": "_tokenId",
          "type": "uint256"
        }
      ],
      "name": "UnListNFT",
      "type": "event"
    },
    {
      "stateMutability": "payable",
      "type": "fallback",
      "payable": true
    },
    {
      "inputs": [],
      "name": "owner",
      "outputs": [
        {
          "internalType": "address",
          "name": "",
          "type": "address"
        }
      ],
      "stateMutability": "view",
      "type": "function",
      "constant": true
    },
    {
      "inputs": [],
      "name": "renounceOwnership",
      "outputs": [],
      "stateMutability": "nonpayable",
      "type": "function"
    },
    {
      "inputs": [],
      "name": "serviceFee",
      "outputs": [
        {
          "internalType": "uint256",
          "name": "",
          "type": "uint256"
        }
      ],
      "stateMutability": "view",
      "type": "function",
      "constant": true
    },
    {
      "inputs": [
        {
          "internalType": "uint256",
          "name": "",
          "type": "uint256"
        }
      ],
      "name": "tokenData",
      "outputs": [
        {
          "internalType": "string",
          "name": "title",
          "type": "string"
        },
        {
          "internalType": "bool",
          "name": "status",
          "type": "bool"
        },
        {
          "internalType": "uint256",
          "name": "price",
          "type": "uint256"
        },
        {
          "internalType": "uint256",
          "name": "royalty",
          "type": "uint256"
        },
        {
          "internalType": "address",
          "name": "creator",
          "type": "address"
        }
      ],
      "stateMutability": "view",
      "type": "function",
      "constant": true
    },
    {
      "inputs": [
        {
          "internalType": "address",
          "name": "newOwner",
          "type": "address"
        }
      ],
      "name": "transferOwnership",
      "outputs": [],
      "stateMutability": "nonpayable",
      "type": "function"
    },
    {
      "stateMutability": "payable",
      "type": "receive",
      "payable": true
    },
    {
      "inputs": [
        {
          "internalType": "uint256",
          "name": "_serviceFee",
          "type": "uint256"
        }
      ],
      "name": "changeServiceFee",
      "outputs": [],
      "stateMutability": "nonpayable",
      "type": "function"
    },
    {
      "inputs": [
        {
          "internalType": "string",
          "name": "_baseTokenURI",
          "type": "string"
        }
      ],
      "name": "changeBaseURI",
      "outputs": [],
      "stateMutability": "nonpayable",
      "type": "function"
    },
    {
      "inputs": [
        {
          "internalType": "address",
          "name": "_creator",
          "type": "address"
        },
        {
          "internalType": "string",
          "name": "_title",
          "type": "string"
        },
        {
          "internalType": "uint256",
          "name": "_royalty",
          "type": "uint256"
        },
        {
          "internalType": "string",
          "name": "_identifier",
          "type": "string"
        },
        {
          "internalType": "bytes",
          "name": "_memo",
          "type": "bytes"
        }
      ],
      "name": "createNFT",
      "outputs": [],
      "stateMutability": "nonpayable",
      "type": "function"
    },
    {
      "inputs": [
        {
          "internalType": "uint256",
          "name": "_tokenId",
          "type": "uint256"
        },
        {
          "internalType": "uint256",
          "name": "_royalty",
          "type": "uint256"
        }
      ],
      "name": "updateRoyaltyOfNFT",
      "outputs": [],
      "stateMutability": "nonpayable",
      "type": "function"
    },
    {
      "inputs": [
        {
          "internalType": "uint256",
          "name": "_tokenId",
          "type": "uint256"
        },
        {
          "internalType": "uint256",
          "name": "_price",
          "type": "uint256"
        }
      ],
      "name": "listNFT",
      "outputs": [],
      "stateMutability": "nonpayable",
      "type": "function"
    },
    {
      "inputs": [
        {
          "internalType": "uint256",
          "name": "_tokenId",
          "type": "uint256"
        }
      ],
      "name": "unListNFT",
      "outputs": [],
      "stateMutability": "nonpayable",
      "type": "function"
    },
    {
      "inputs": [
        {
          "internalType": "uint256",
          "name": "_tokenId",
          "type": "uint256"
        },
        {
          "internalType": "uint256",
          "name": "_updatedPrice",
          "type": "uint256"
        }
      ],
      "name": "updatePriceOfNFT",
      "outputs": [],
      "stateMutability": "nonpayable",
      "type": "function"
    },
    {
      "inputs": [
        {
          "internalType": "uint256",
          "name": "_tokenId",
          "type": "uint256"
        },
        {
          "internalType": "address",
          "name": "_to",
          "type": "address"
        },
        {
          "internalType": "bytes",
          "name": "_memo",
          "type": "bytes"
        }
      ],
      "name": "buyNFT",
      "outputs": [],
      "stateMutability": "payable",
      "type": "function",
      "payable": true
    },
    {
      "inputs": [
        {
          "internalType": "uint256",
          "name": "_tokenId",
          "type": "uint256"
        }
      ],
      "name": "deleteNFT",
      "outputs": [],
      "stateMutability": "nonpayable",
      "type": "function"
    },
    {
      "inputs": [],
      "name": "getMyItems",
      "outputs": [
        {
          "internalType": "uint256[]",
          "name": "",
          "type": "uint256[]"
        }
      ],
      "stateMutability": "view",
      "type": "function",
      "constant": true
    },
    {
      "inputs": [],
      "name": "getMyListedItems",
      "outputs": [
        {
          "internalType": "uint256[]",
          "name": "",
          "type": "uint256[]"
        }
      ],
      "stateMutability": "view",
      "type": "function",
      "constant": true
    },
    {
      "inputs": [],
      "name": "getMyCreatedItems",
      "outputs": [
        {
          "internalType": "uint256[]",
          "name": "",
          "type": "uint256[]"
        }
      ],
      "stateMutability": "view",
      "type": "function",
      "constant": true
    },
    {
      "inputs": [],
      "name": "dashboardItems",
      "outputs": [
        {
          "internalType": "uint256[]",
          "name": "",
          "type": "uint256[]"
        }
      ],
      "stateMutability": "view",
      "type": "function",
      "constant": true
    },
    {
      "inputs": [],
      "name": "getNFTsOnSale",
      "outputs": [
        {
          "internalType": "uint256[]",
          "name": "",
          "type": "uint256[]"
        }
      ],
      "stateMutability": "view",
      "type": "function",
      "constant": true
    }
  ],
  "bytecode": "0x60806040523480156200001157600080fd5b506040516200438c3803806200438c83398181016040528101906200003791906200027d565b600062000049620001c960201b60201c565b9050806000806101000a81548173ffffffffffffffffffffffffffffffffffffffff021916908373ffffffffffffffffffffffffffffffffffffffff1602179055508073ffffffffffffffffffffffffffffffffffffffff16600073ffffffffffffffffffffffffffffffffffffffff167f8be0079c531659141344cd1fd0a4f28419497f9722a3daafe3b4186f6b6457e060405160405180910390a35082600260006101000a81548173ffffffffffffffffffffffffffffffffffffffff021916908373ffffffffffffffffffffffffffffffffffffffff160217905550600260009054906101000a900473ffffffffffffffffffffffffffffffffffffffff1673ffffffffffffffffffffffffffffffffffffffff166317d05d8a836040518263ffffffff1660e01b815260040162000185919062000339565b600060405180830381600087803b158015620001a057600080fd5b505af1158015620001b5573d6000803e3d6000fd5b50505050806003819055505050506200050a565b600033905090565b6000620001e8620001e28462000386565b6200035d565b905082815260208101848484011115620002075762000206620004b6565b5b6200021484828562000416565b509392505050565b6000815190506200022d81620004d6565b92915050565b600082601f8301126200024b576200024a620004b1565b5b81516200025d848260208601620001d1565b91505092915050565b6000815190506200027781620004f0565b92915050565b600080600060608486031215620002995762000298620004c0565b5b6000620002a9868287016200021c565b935050602084015167ffffffffffffffff811115620002cd57620002cc620004bb565b5b620002db8682870162000233565b9250506040620002ee8682870162000266565b9150509250925092565b60006200030582620003bc565b620003118185620003c7565b93506200032381856020860162000416565b6200032e81620004c5565b840191505092915050565b60006020820190508181036000830152620003558184620002f8565b905092915050565b6000620003696200037c565b90506200037782826200044c565b919050565b6000604051905090565b600067ffffffffffffffff821115620003a457620003a362000482565b5b620003af82620004c5565b9050602081019050919050565b600081519050919050565b600082825260208201905092915050565b6000620003e582620003ec565b9050919050565b600073ffffffffffffffffffffffffffffffffffffffff82169050919050565b6000819050919050565b60005b838110156200043657808201518184015260208101905062000419565b8381111562000446576000848401525b50505050565b6200045782620004c5565b810181811067ffffffffffffffff8211171562000479576200047862000482565b5b80604052505050565b7f4e487b7100000000000000000000000000000000000000000000000000000000600052604160045260246000fd5b600080fd5b600080fd5b600080fd5b600080fd5b6000601f19601f8301169050919050565b620004e181620003d8565b8114620004ed57600080fd5b50565b620004fb816200040c565b81146200050757600080fd5b50565b613e72806200051a6000396000f3fe6080604052600436106101185760003560e01c80638da5cb5b116100a0578063c5fb207d11610064578063c5fb207d14610364578063d0a4b9f91461038f578063d3e256bf146103b8578063f2fde38b146103e1578063f687ed571461040a5761011f565b80638da5cb5b1461027b57806394383f14146102a65780639594c500146102cf5780639b4bb9b3146102fa578063b4b5b48f146103235761011f565b8063635fa7b6116100e7578063635fa7b6146101ba578063638e4af3146101e5578063715018a61461021057806384d7d3f2146102275780638abdf5aa146102505761011f565b80630ca2f16814610121578063123648a81461014a57806336a4009c1461016657806339a0c6f9146101915761011f565b3661011f57005b005b34801561012d57600080fd5b5061014860048036038101906101439190612bc5565b610433565b005b610164600480360381019061015f9190612c1f565b610632565b005b34801561017257600080fd5b5061017b610d0e565b6040516101889190613173565b60405180910390f35b34801561019d57600080fd5b506101b860048036038101906101b39190612b7c565b610efb565b005b3480156101c657600080fd5b506101cf611007565b6040516101dc9190613173565b60405180910390f35b3480156101f157600080fd5b506101fa611228565b6040516102079190613173565b60405180910390f35b34801561021c57600080fd5b506102256114ea565b005b34801561023357600080fd5b5061024e60048036038101906102499190612a80565b611624565b005b34801561025c57600080fd5b50610265611900565b60405161027291906133d1565b60405180910390f35b34801561028757600080fd5b50610290611906565b60405161029d9190613014565b60405180910390f35b3480156102b257600080fd5b506102cd60048036038101906102c89190612c8e565b61192f565b005b3480156102db57600080fd5b506102e4611da3565b6040516102f19190613173565b60405180910390f35b34801561030657600080fd5b50610321600480360381019061031c9190612c8e565b611dfb565b005b34801561032f57600080fd5b5061034a60048036038101906103459190612bc5565b611ebe565b60405161035b9594939291906131b7565b60405180910390f35b34801561037057600080fd5b50610379611fa9565b6040516103869190613173565b60405180910390f35b34801561039b57600080fd5b506103b660048036038101906103b19190612c8e565b612155565b005b3480156103c457600080fd5b506103df60048036038101906103da9190612bc5565b6122b8565b005b3480156103ed57600080fd5b5061040860048036038101906104039190612a26565b61233e565b005b34801561041657600080fd5b50610431600480360381019061042c9190612bc5565b6124e7565b005b600260009054906101000a900473ffffffffffffffffffffffffffffffffffffffff1673ffffffffffffffffffffffffffffffffffffffff16636352211e826040518263ffffffff1660e01b815260040161048e91906133d1565b60206040518083038186803b1580156104a657600080fd5b505afa1580156104ba573d6000803e3d6000fd5b505050506040513d601f19601f820116820180604052508101906104de9190612a53565b73ffffffffffffffffffffffffffffffffffffffff163273ffffffffffffffffffffffffffffffffffffffff1614801561053857506004600082815260200190815260200160002060010160009054906101000a900460ff165b610577576040517f08c379a000000000000000000000000000000000000000000000000000000000815260040161056e90613291565b60405180910390fd5b60006004600083815260200190815260200160002060010160006101000a81548160ff021916908315150217905550600060066000838152602001908152602001600020549050600581815481106105d2576105d1613887565b5b906000526020600020016000905560066000838152602001908152602001600020600090557f03ba940526f9ab7b901a2c4cc699f661c9404a814dec86388efe1b33733542a18260405161062691906133d1565b60405180910390a15050565b61063a6127ce565b73ffffffffffffffffffffffffffffffffffffffff168273ffffffffffffffffffffffffffffffffffffffff1614801561069457506004600084815260200190815260200160002060010160009054906101000a900460ff165b6106d3576040517f08c379a00000000000000000000000000000000000000000000000000000000081526004016106ca90613271565b60405180910390fd5b6000600260009054906101000a900473ffffffffffffffffffffffffffffffffffffffff1673ffffffffffffffffffffffffffffffffffffffff16636352211e856040518263ffffffff1660e01b815260040161073091906133d1565b60206040518083038186803b15801561074857600080fd5b505afa15801561075c573d6000803e3d6000fd5b505050506040513d601f19601f820116820180604052508101906107809190612a53565b905060006004600086815260200190815260200160002060020154905060006004600087815260200190815260200160002060040160009054906101000a900473ffffffffffffffffffffffffffffffffffffffff1690506000600460008881526020019081526020016000206003015490506000606482856108039190613636565b61080d9190613605565b905060006064600354866108219190613636565b61082b9190613605565b90508573ffffffffffffffffffffffffffffffffffffffff168473ffffffffffffffffffffffffffffffffffffffff1614156108b457808561086d91906135af565b3410156108af576040517f08c379a00000000000000000000000000000000000000000000000000000000081526004016108a690613351565b60405180910390fd5b610a43565b8773ffffffffffffffffffffffffffffffffffffffff168473ffffffffffffffffffffffffffffffffffffffff16141561093b5780856108f491906135af565b341015610936576040517f08c379a000000000000000000000000000000000000000000000000000000000815260040161092d90613351565b60405180910390fd5b610a42565b81818661094891906135af565b61095291906135af565b341015610994576040517f08c379a000000000000000000000000000000000000000000000000000000000815260040161098b90613351565b60405180910390fd5b60008473ffffffffffffffffffffffffffffffffffffffff16836040516109ba90612fff565b60006040518083038185875af1925050503d80600081146109f7576040519150601f19603f3d011682016040523d82523d6000602084013e6109fc565b606091505b5050905080610a40576040517f08c379a0000000000000000000000000000000000000000000000000000000008152600401610a37906132d1565b60405180910390fd5b505b5b60008673ffffffffffffffffffffffffffffffffffffffff168287610a689190613690565b604051610a7490612fff565b60006040518083038185875af1925050503d8060008114610ab1576040519150601f19603f3d011682016040523d82523d6000602084013e610ab6565b606091505b5050905080610afa576040517f08c379a0000000000000000000000000000000000000000000000000000000008152600401610af190613211565b60405180910390fd5b60003073ffffffffffffffffffffffffffffffffffffffff16600284610b209190613636565b604051610b2c90612fff565b60006040518083038185875af1925050503d8060008114610b69576040519150601f19603f3d011682016040523d82523d6000602084013e610b6e565b606091505b5050905080610bb2576040517f08c379a0000000000000000000000000000000000000000000000000000000008152600401610ba9906133b1565b60405180910390fd5b600260009054906101000a900473ffffffffffffffffffffffffffffffffffffffff1673ffffffffffffffffffffffffffffffffffffffff1663b88d4fde898c8e8d6040518563ffffffff1660e01b8152600401610c139493929190613058565b600060405180830381600087803b158015610c2d57600080fd5b505af1158015610c41573d6000803e3d6000fd5b505050506000600460008d815260200190815260200160002060010160006101000a81548160ff0219169083151502179055506000600660008d815260200190815260200160002054905060058181548110610ca057610c9f613887565b5b9060005260206000200160009055600660008d8152602001908152602001600020600090557fc348be043d1f99607b8e4cbc7cdeb4ca02f35eee7cb03030a3523bdc4bbce3948c8c8c604051610cf893929190613415565b60405180910390a1505050505050505050505050565b606060003390506000600260009054906101000a900473ffffffffffffffffffffffffffffffffffffffff1673ffffffffffffffffffffffffffffffffffffffff166370a08231836040518263ffffffff1660e01b8152600401610d729190613014565b60206040518083038186803b158015610d8a57600080fd5b505afa158015610d9e573d6000803e3d6000fd5b505050506040513d601f19601f82011682018060405250810190610dc29190612bf2565b905060606000805b83811015610ef0576000600260009054906101000a900473ffffffffffffffffffffffffffffffffffffffff1673ffffffffffffffffffffffffffffffffffffffff16632f745c5987846040518363ffffffff1660e01b8152600401610e3192919061310c565b60206040518083038186803b158015610e4957600080fd5b505afa158015610e5d573d6000803e3d6000fd5b505050506040513d601f19601f82011682018060405250810190610e819190612bf2565b90506004600082815260200190815260200160002060010160009054906101000a900460ff1615610edc5780848481518110610ec057610ebf613887565b5b602002602001018181525050600183610ed991906135af565b92505b508080610ee8906137b1565b915050610dca565b508194505050505090565b610f036127ce565b73ffffffffffffffffffffffffffffffffffffffff16610f21611906565b73ffffffffffffffffffffffffffffffffffffffff1614610f77576040517f08c379a0000000000000000000000000000000000000000000000000000000008152600401610f6e906132f1565b60405180910390fd5b600260009054906101000a900473ffffffffffffffffffffffffffffffffffffffff1673ffffffffffffffffffffffffffffffffffffffff166317d05d8a826040518263ffffffff1660e01b8152600401610fd29190613195565b600060405180830381600087803b158015610fec57600080fd5b505af1158015611000573d6000803e3d6000fd5b5050505050565b606060003390506000600260009054906101000a900473ffffffffffffffffffffffffffffffffffffffff1673ffffffffffffffffffffffffffffffffffffffff166318160ddd6040518163ffffffff1660e01b815260040160206040518083038186803b15801561107857600080fd5b505afa15801561108c573d6000803e3d6000fd5b505050506040513d601f19601f820116820180604052508101906110b09190612bf2565b905060606000805b8381101561121d576000600260009054906101000a900473ffffffffffffffffffffffffffffffffffffffff1673ffffffffffffffffffffffffffffffffffffffff16634f6ccce7836040518263ffffffff1660e01b815260040161111d91906133d1565b60206040518083038186803b15801561113557600080fd5b505afa158015611149573d6000803e3d6000fd5b505050506040513d601f19601f8201168201806040525081019061116d9190612bf2565b90508573ffffffffffffffffffffffffffffffffffffffff166004600083815260200190815260200160002060040160009054906101000a900473ffffffffffffffffffffffffffffffffffffffff1673ffffffffffffffffffffffffffffffffffffffff16141561120957808484815181106111ed576111ec613887565b5b60200260200101818152505060018361120691906135af565b92505b508080611215906137b1565b9150506110b8565b508194505050505090565b606060003390506000600260009054906101000a900473ffffffffffffffffffffffffffffffffffffffff1673ffffffffffffffffffffffffffffffffffffffff166318160ddd6040518163ffffffff1660e01b815260040160206040518083038186803b15801561129957600080fd5b505afa1580156112ad573d6000803e3d6000fd5b505050506040513d601f19601f820116820180604052508101906112d19190612bf2565b905060606000805b838110156114df576000600260009054906101000a900473ffffffffffffffffffffffffffffffffffffffff1673ffffffffffffffffffffffffffffffffffffffff16634f6ccce7836040518263ffffffff1660e01b815260040161133e91906133d1565b60206040518083038186803b15801561135657600080fd5b505afa15801561136a573d6000803e3d6000fd5b505050506040513d601f19601f8201168201806040525081019061138e9190612bf2565b90508573ffffffffffffffffffffffffffffffffffffffff16600260009054906101000a900473ffffffffffffffffffffffffffffffffffffffff1673ffffffffffffffffffffffffffffffffffffffff16636352211e836040518263ffffffff1660e01b815260040161140291906133d1565b60206040518083038186803b15801561141a57600080fd5b505afa15801561142e573d6000803e3d6000fd5b505050506040513d601f19601f820116820180604052508101906114529190612a53565b73ffffffffffffffffffffffffffffffffffffffff161415801561149657506004600082815260200190815260200160002060010160009054906101000a900460ff165b156114cb57808484815181106114af576114ae613887565b5b6020026020010181815250506001836114c891906135af565b92505b5080806114d7906137b1565b9150506112d9565b508194505050505090565b6114f26127ce565b73ffffffffffffffffffffffffffffffffffffffff16611510611906565b73ffffffffffffffffffffffffffffffffffffffff1614611566576040517f08c379a000000000000000000000000000000000000000000000000000000000815260040161155d906132f1565b60405180910390fd5b600073ffffffffffffffffffffffffffffffffffffffff1660008054906101000a900473ffffffffffffffffffffffffffffffffffffffff1673ffffffffffffffffffffffffffffffffffffffff167f8be0079c531659141344cd1fd0a4f28419497f9722a3daafe3b4186f6b6457e060405160405180910390a360008060006101000a81548173ffffffffffffffffffffffffffffffffffffffff021916908373ffffffffffffffffffffffffffffffffffffffff160217905550565b3373ffffffffffffffffffffffffffffffffffffffff168573ffffffffffffffffffffffffffffffffffffffff1614611692576040517f08c379a000000000000000000000000000000000000000000000000000000000815260040161168990613391565b60405180910390fd5b61169c60016127d6565b60006116a860016127ec565b9050600260009054906101000a900473ffffffffffffffffffffffffffffffffffffffff1673ffffffffffffffffffffffffffffffffffffffff1663081655e98783856040518463ffffffff1660e01b815260040161170993929190613135565b600060405180830381600087803b15801561172357600080fd5b505af1158015611737573d6000803e3d6000fd5b50505050600260009054906101000a900473ffffffffffffffffffffffffffffffffffffffff1673ffffffffffffffffffffffffffffffffffffffff1663e5589c1b82856040518363ffffffff1660e01b8152600401611798929190613453565b600060405180830381600087803b1580156117b257600080fd5b505af11580156117c6573d6000803e3d6000fd5b505050506040518060a00160405280868152602001600015158152602001600081526020018581526020018773ffffffffffffffffffffffffffffffffffffffff1681525060046000838152602001908152602001600020600082015181600001908051906020019061183a9291906127fa565b5060208201518160010160006101000a81548160ff021916908315150217905550604082015181600201556060820151816003015560808201518160040160006101000a81548173ffffffffffffffffffffffffffffffffffffffff021916908373ffffffffffffffffffffffffffffffffffffffff1602179055509050507fdf4109b83d58159b97d15a2cfccd8fde61918e27fd4459836d93e8efbf4870d386868686866040516118f09594939291906130a4565b60405180910390a1505050505050565b60035481565b60008060009054906101000a900473ffffffffffffffffffffffffffffffffffffffff16905090565b3373ffffffffffffffffffffffffffffffffffffffff16600260009054906101000a900473ffffffffffffffffffffffffffffffffffffffff1673ffffffffffffffffffffffffffffffffffffffff16636352211e846040518263ffffffff1660e01b81526004016119a191906133d1565b60206040518083038186803b1580156119b957600080fd5b505afa1580156119cd573d6000803e3d6000fd5b505050506040513d601f19601f820116820180604052508101906119f19190612a53565b73ffffffffffffffffffffffffffffffffffffffff1614611a47576040517f08c379a0000000000000000000000000000000000000000000000000000000008152600401611a3e90613331565b60405180910390fd5b6004600083815260200190815260200160002060010160009054906101000a900460ff1615611aab576040517f08c379a0000000000000000000000000000000000000000000000000000000008152600401611aa290613231565b60405180910390fd5b80600460008481526020019081526020016000206002018190555060016004600084815260200190815260200160002060010160006101000a81548160ff021916908315150217905550600260009054906101000a900473ffffffffffffffffffffffffffffffffffffffff1673ffffffffffffffffffffffffffffffffffffffff1663e985e9c533306040518363ffffffff1660e01b8152600401611b5292919061302f565b60206040518083038186803b158015611b6a57600080fd5b505afa158015611b7e573d6000803e3d6000fd5b505050506040513d601f19601f82011682018060405250810190611ba29190612b4f565b158015611c8557503073ffffffffffffffffffffffffffffffffffffffff16600260009054906101000a900473ffffffffffffffffffffffffffffffffffffffff1673ffffffffffffffffffffffffffffffffffffffff1663081812fc846040518263ffffffff1660e01b8152600401611c1c91906133d1565b60206040518083038186803b158015611c3457600080fd5b505afa158015611c48573d6000803e3d6000fd5b505050506040513d601f19601f82011682018060405250810190611c6c9190612a53565b73ffffffffffffffffffffffffffffffffffffffff1614155b15611d1a57600260009054906101000a900473ffffffffffffffffffffffffffffffffffffffff1673ffffffffffffffffffffffffffffffffffffffff1663c420409230846040518363ffffffff1660e01b8152600401611ce792919061310c565b600060405180830381600087803b158015611d0157600080fd5b505af1158015611d15573d6000803e3d6000fd5b505050505b6000600580549050905060058390806001815401808255809150506001900390600052602060002001600090919091909150558060066000858152602001908152602001600020819055507fadc2524c8f93616be9bad3bcab121a8de2a297699e78d4762481efcd6d26a9268383604051611d96929190613483565b60405180910390a1505050565b60606005805480602002602001604051908101604052809291908181526020018280548015611df157602002820191906000526020600020905b815481526020019060010190808311611ddd575b5050505050905090565b6004600083815260200190815260200160002060040160009054906101000a900473ffffffffffffffffffffffffffffffffffffffff1673ffffffffffffffffffffffffffffffffffffffff163373ffffffffffffffffffffffffffffffffffffffff1614611e9f576040517f08c379a0000000000000000000000000000000000000000000000000000000008152600401611e96906132b1565b60405180910390fd5b8060046000848152602001908152602001600020600301819055505050565b6004602052806000526040600020600091509050806000018054611ee19061374e565b80601f0160208091040260200160405190810160405280929190818152602001828054611f0d9061374e565b8015611f5a5780601f10611f2f57610100808354040283529160200191611f5a565b820191906000526020600020905b815481529060010190602001808311611f3d57829003601f168201915b5050505050908060010160009054906101000a900460ff16908060020154908060030154908060040160009054906101000a900473ffffffffffffffffffffffffffffffffffffffff16905085565b606060003390506000600260009054906101000a900473ffffffffffffffffffffffffffffffffffffffff1673ffffffffffffffffffffffffffffffffffffffff166370a08231836040518263ffffffff1660e01b815260040161200d9190613014565b60206040518083038186803b15801561202557600080fd5b505afa158015612039573d6000803e3d6000fd5b505050506040513d601f19601f8201168201806040525081019061205d9190612bf2565b9050606060005b8281101561214b57600260009054906101000a900473ffffffffffffffffffffffffffffffffffffffff1673ffffffffffffffffffffffffffffffffffffffff16632f745c5985836040518363ffffffff1660e01b81526004016120c992919061310c565b60206040518083038186803b1580156120e157600080fd5b505afa1580156120f5573d6000803e3d6000fd5b505050506040513d601f19601f820116820180604052508101906121199190612bf2565b82828151811061212c5761212b613887565b5b6020026020010181815250508080612143906137b1565b915050612064565b5080935050505090565b600260009054906101000a900473ffffffffffffffffffffffffffffffffffffffff1673ffffffffffffffffffffffffffffffffffffffff16636352211e836040518263ffffffff1660e01b81526004016121b091906133d1565b60206040518083038186803b1580156121c857600080fd5b505afa1580156121dc573d6000803e3d6000fd5b505050506040513d601f19601f820116820180604052508101906122009190612a53565b73ffffffffffffffffffffffffffffffffffffffff163373ffffffffffffffffffffffffffffffffffffffff1614801561225a57506004600083815260200190815260200160002060010160009054906101000a900460ff165b612299576040517f08c379a000000000000000000000000000000000000000000000000000000000815260040161229090613311565b60405180910390fd5b8060046000848152602001908152602001600020600201819055505050565b6122c06127ce565b73ffffffffffffffffffffffffffffffffffffffff166122de611906565b73ffffffffffffffffffffffffffffffffffffffff1614612334576040517f08c379a000000000000000000000000000000000000000000000000000000000815260040161232b906132f1565b60405180910390fd5b8060038190555050565b6123466127ce565b73ffffffffffffffffffffffffffffffffffffffff16612364611906565b73ffffffffffffffffffffffffffffffffffffffff16146123ba576040517f08c379a00000000000000000000000000000000000000000000000000000000081526004016123b1906132f1565b60405180910390fd5b600073ffffffffffffffffffffffffffffffffffffffff168173ffffffffffffffffffffffffffffffffffffffff16141561242a576040517f08c379a000000000000000000000000000000000000000000000000000000000815260040161242190613251565b60405180910390fd5b8073ffffffffffffffffffffffffffffffffffffffff1660008054906101000a900473ffffffffffffffffffffffffffffffffffffffff1673ffffffffffffffffffffffffffffffffffffffff167f8be0079c531659141344cd1fd0a4f28419497f9722a3daafe3b4186f6b6457e060405160405180910390a3806000806101000a81548173ffffffffffffffffffffffffffffffffffffffff021916908373ffffffffffffffffffffffffffffffffffffffff16021790555050565b600260009054906101000a900473ffffffffffffffffffffffffffffffffffffffff1673ffffffffffffffffffffffffffffffffffffffff16636352211e826040518263ffffffff1660e01b815260040161254291906133d1565b60206040518083038186803b15801561255a57600080fd5b505afa15801561256e573d6000803e3d6000fd5b505050506040513d601f19601f820116820180604052508101906125929190612a53565b73ffffffffffffffffffffffffffffffffffffffff163373ffffffffffffffffffffffffffffffffffffffff16146125ff576040517f08c379a00000000000000000000000000000000000000000000000000000000081526004016125f690613371565b60405180910390fd5b6004600082815260200190815260200160002060010160009054906101000a900460ff1615612694573073ffffffffffffffffffffffffffffffffffffffff16630ca2f168826040518263ffffffff1660e01b815260040161266191906133d1565b600060405180830381600087803b15801561267b57600080fd5b505af115801561268f573d6000803e3d6000fd5b505050505b600260009054906101000a900473ffffffffffffffffffffffffffffffffffffffff1673ffffffffffffffffffffffffffffffffffffffff16631e8383a8826040518263ffffffff1660e01b81526004016126ef91906133d1565b600060405180830381600087803b15801561270957600080fd5b505af115801561271d573d6000803e3d6000fd5b5050505060046000828152602001908152602001600020600080820160006127459190612880565b6001820160006101000a81549060ff0219169055600282016000905560038201600090556004820160006101000a81549073ffffffffffffffffffffffffffffffffffffffff021916905550507fc7d0724bfe536e3688da8cb3f17fd11d0605e333370442e32ed8bad229d92a6c81336040516127c39291906133ec565b60405180910390a150565b600033905090565b6001816000016000828254019250508190555050565b600081600001549050919050565b8280546128069061374e565b90600052602060002090601f016020900481019282612828576000855561286f565b82601f1061284157805160ff191683800117855561286f565b8280016001018555821561286f579182015b8281111561286e578251825591602001919060010190612853565b5b50905061287c91906128c0565b5090565b50805461288c9061374e565b6000825580601f1061289e57506128bd565b601f0160209004906000526020600020908101906128bc91906128c0565b5b50565b5b808211156128d95760008160009055506001016128c1565b5090565b60006128f06128eb846134d1565b6134ac565b90508281526020810184848401111561290c5761290b6138ea565b5b61291784828561370c565b509392505050565b600061293261292d84613502565b6134ac565b90508281526020810184848401111561294e5761294d6138ea565b5b61295984828561370c565b509392505050565b60008135905061297081613df7565b92915050565b60008151905061298581613df7565b92915050565b60008151905061299a81613e0e565b92915050565b600082601f8301126129b5576129b46138e5565b5b81356129c58482602086016128dd565b91505092915050565b600082601f8301126129e3576129e26138e5565b5b81356129f384826020860161291f565b91505092915050565b600081359050612a0b81613e25565b92915050565b600081519050612a2081613e25565b92915050565b600060208284031215612a3c57612a3b6138f4565b5b6000612a4a84828501612961565b91505092915050565b600060208284031215612a6957612a686138f4565b5b6000612a7784828501612976565b91505092915050565b600080600080600060a08688031215612a9c57612a9b6138f4565b5b6000612aaa88828901612961565b955050602086013567ffffffffffffffff811115612acb57612aca6138ef565b5b612ad7888289016129ce565b9450506040612ae8888289016129fc565b935050606086013567ffffffffffffffff811115612b0957612b086138ef565b5b612b15888289016129ce565b925050608086013567ffffffffffffffff811115612b3657612b356138ef565b5b612b42888289016129a0565b9150509295509295909350565b600060208284031215612b6557612b646138f4565b5b6000612b738482850161298b565b91505092915050565b600060208284031215612b9257612b916138f4565b5b600082013567ffffffffffffffff811115612bb057612baf6138ef565b5b612bbc848285016129ce565b91505092915050565b600060208284031215612bdb57612bda6138f4565b5b6000612be9848285016129fc565b91505092915050565b600060208284031215612c0857612c076138f4565b5b6000612c1684828501612a11565b91505092915050565b600080600060608486031215612c3857612c376138f4565b5b6000612c46868287016129fc565b9350506020612c5786828701612961565b925050604084013567ffffffffffffffff811115612c7857612c776138ef565b5b612c84868287016129a0565b9150509250925092565b60008060408385031215612ca557612ca46138f4565b5b6000612cb3858286016129fc565b9250506020612cc4858286016129fc565b9150509250929050565b6000612cda8383612fe1565b60208301905092915050565b612cef816136c4565b82525050565b6000612d0082613543565b612d0a8185613571565b9350612d1583613533565b8060005b83811015612d46578151612d2d8882612cce565b9750612d3883613564565b925050600181019050612d19565b5085935050505092915050565b612d5c816136d6565b82525050565b6000612d6d8261354e565b612d778185613582565b9350612d8781856020860161371b565b612d90816138f9565b840191505092915050565b6000612da682613559565b612db0818561359e565b9350612dc081856020860161371b565b612dc9816138f9565b840191505092915050565b6000612de160428361359e565b9150612dec8261390a565b606082019050919050565b6000612e0460278361359e565b9150612e0f8261397f565b604082019050919050565b6000612e2760268361359e565b9150612e32826139ce565b604082019050919050565b6000612e4a603a8361359e565b9150612e5582613a1d565b604082019050919050565b6000612e6d605d8361359e565b9150612e7882613a6c565b606082019050919050565b6000612e9060358361359e565b9150612e9b82613ae1565b604082019050919050565b6000612eb360438361359e565b9150612ebe82613b30565b606082019050919050565b6000612ed660208361359e565b9150612ee182613ba5565b602082019050919050565b6000612ef960338361359e565b9150612f0482613bce565b604082019050919050565b6000612f1c602c8361359e565b9150612f2782613c1d565b604082019050919050565b6000612f3f600083613593565b9150612f4a82613c6c565b600082019050919050565b6000612f6260408361359e565b9150612f6d82613c6f565b604082019050919050565b6000612f85602d8361359e565b9150612f9082613cbe565b604082019050919050565b6000612fa8603a8361359e565b9150612fb382613d0d565b604082019050919050565b6000612fcb60628361359e565b9150612fd682613d5c565b608082019050919050565b612fea81613702565b82525050565b612ff981613702565b82525050565b600061300a82612f32565b9150819050919050565b60006020820190506130296000830184612ce6565b92915050565b60006040820190506130446000830185612ce6565b6130516020830184612ce6565b9392505050565b600060808201905061306d6000830187612ce6565b61307a6020830186612ce6565b6130876040830185612ff0565b81810360608301526130998184612d62565b905095945050505050565b600060a0820190506130b96000830188612ce6565b81810360208301526130cb8187612d9b565b90506130da6040830186612ff0565b81810360608301526130ec8185612d9b565b905081810360808301526131008184612d62565b90509695505050505050565b60006040820190506131216000830185612ce6565b61312e6020830184612ff0565b9392505050565b600060608201905061314a6000830186612ce6565b6131576020830185612ff0565b81810360408301526131698184612d62565b9050949350505050565b6000602082019050818103600083015261318d8184612cf5565b905092915050565b600060208201905081810360008301526131af8184612d9b565b905092915050565b600060a08201905081810360008301526131d18188612d9b565b90506131e06020830187612d53565b6131ed6040830186612ff0565b6131fa6060830185612ff0565b6132076080830184612ce6565b9695505050505050565b6000602082019050818103600083015261322a81612dd4565b9050919050565b6000602082019050818103600083015261324a81612df7565b9050919050565b6000602082019050818103600083015261326a81612e1a565b9050919050565b6000602082019050818103600083015261328a81612e3d565b9050919050565b600060208201905081810360008301526132aa81612e60565b9050919050565b600060208201905081810360008301526132ca81612e83565b9050919050565b600060208201905081810360008301526132ea81612ea6565b9050919050565b6000602082019050818103600083015261330a81612ec9565b9050919050565b6000602082019050818103600083015261332a81612eec565b9050919050565b6000602082019050818103600083015261334a81612f0f565b9050919050565b6000602082019050818103600083015261336a81612f55565b9050919050565b6000602082019050818103600083015261338a81612f78565b9050919050565b600060208201905081810360008301526133aa81612f9b565b9050919050565b600060208201905081810360008301526133ca81612fbe565b9050919050565b60006020820190506133e66000830184612ff0565b92915050565b60006040820190506134016000830185612ff0565b61340e6020830184612ce6565b9392505050565b600060608201905061342a6000830186612ff0565b6134376020830185612ce6565b81810360408301526134498184612d62565b9050949350505050565b60006040820190506134686000830185612ff0565b818103602083015261347a8184612d9b565b90509392505050565b60006040820190506134986000830185612ff0565b6134a56020830184612ff0565b9392505050565b60006134b66134c7565b90506134c28282613780565b919050565b6000604051905090565b600067ffffffffffffffff8211156134ec576134eb6138b6565b5b6134f5826138f9565b9050602081019050919050565b600067ffffffffffffffff82111561351d5761351c6138b6565b5b613526826138f9565b9050602081019050919050565b6000819050602082019050919050565b600081519050919050565b600081519050919050565b600081519050919050565b6000602082019050919050565b600082825260208201905092915050565b600082825260208201905092915050565b600081905092915050565b600082825260208201905092915050565b60006135ba82613702565b91506135c583613702565b9250827fffffffffffffffffffffffffffffffffffffffffffffffffffffffffffffffff038211156135fa576135f96137fa565b5b828201905092915050565b600061361082613702565b915061361b83613702565b92508261362b5761362a613829565b5b828204905092915050565b600061364182613702565b915061364c83613702565b9250817fffffffffffffffffffffffffffffffffffffffffffffffffffffffffffffffff0483118215151615613685576136846137fa565b5b828202905092915050565b600061369b82613702565b91506136a683613702565b9250828210156136b9576136b86137fa565b5b828203905092915050565b60006136cf826136e2565b9050919050565b60008115159050919050565b600073ffffffffffffffffffffffffffffffffffffffff82169050919050565b6000819050919050565b82818337600083830152505050565b60005b8381101561373957808201518184015260208101905061371e565b83811115613748576000848401525b50505050565b6000600282049050600182168061376657607f821691505b6020821081141561377a57613779613858565b5b50919050565b613789826138f9565b810181811067ffffffffffffffff821117156137a8576137a76138b6565b5b80604052505050565b60006137bc82613702565b91507fffffffffffffffffffffffffffffffffffffffffffffffffffffffffffffffff8214156137ef576137ee6137fa565b5b600182019050919050565b7f4e487b7100000000000000000000000000000000000000000000000000000000600052601160045260246000fd5b7f4e487b7100000000000000000000000000000000000000000000000000000000600052601260045260246000fd5b7f4e487b7100000000000000000000000000000000000000000000000000000000600052602260045260246000fd5b7f4e487b7100000000000000000000000000000000000000000000000000000000600052603260045260246000fd5b7f4e487b7100000000000000000000000000000000000000000000000000000000600052604160045260246000fd5b600080fd5b600080fd5b600080fd5b600080fd5b6000601f19601f8301169050919050565b7f4e4654204d61726b6574706c616365204275793a2053656e64696e67206d6f6e60008201527f65792066726f6d20627579657220746f2073656c6c6572206973206661696c6560208201527f642e000000000000000000000000000000000000000000000000000000000000604082015250565b7f4e4654204d61726b657420506c6163653a204e465420697320616c726561647960008201527f206c697374656400000000000000000000000000000000000000000000000000602082015250565b7f4f776e61626c653a206e6577206f776e657220697320746865207a65726f206160008201527f6464726573730000000000000000000000000000000000000000000000000000602082015250565b7f4e4654204d61726b6574506c6163653a206f6e6c792062757965722063616e2060008201527f627579204e4654207768656e204e4654206973206c6973746564000000000000602082015250565b7f4e4654204d61726b6574506c6163653a204f6e6c79206f776e6572206f66204e60008201527f46542063616e20756e6c697374204e46542066726f6d204d61726b6574506c6160208201527f6365206f72204e465420697320616c726561647920756e6c6973746564000000604082015250565b7f4e4654204d61726b6574506c6163653a204f6e6c79206f776e6572206f66204e60008201527f46542063616e2075706461746520726f79616c74790000000000000000000000602082015250565b7f4e4654204d61726b6574706c616365204275793a2053656e64696e67206d6f6e60008201527f65792066726f6d20627579657220746f2063726561746f72206973206661696c60208201527f65642e0000000000000000000000000000000000000000000000000000000000604082015250565b7f4f776e61626c653a2063616c6c6572206973206e6f7420746865206f776e6572600082015250565b7f4e4654204d61726b6574506c6163653a204f6e6c79206f776e6572206f66204e60008201527f46542063616e2075706461746520707269636500000000000000000000000000602082015250565b7f4e4654204d61726b657420506c6163653a204f6e6c79206f776e6572206f662060008201527f4e46542063616e206c6973740000000000000000000000000000000000000000602082015250565b50565b7f4e4654204d61726b6574706c6163653a20696e73756666696369656e7420626160008201527f6c616e636520696e20796f7572206163636f756e7420746f20627579204e4654602082015250565b7f4e4654204d61726b6574506c6163653a204f6e6c79206f776e6572206f66204e60008201527f46542063616e2064656c65746500000000000000000000000000000000000000602082015250565b7f4e4654204d61726b657420506c6163653a20596f752063616e2774206372656160008201527f7465204e4654206f6e20626568616c66206f66206f7468657273000000000000602082015250565b7f4e4654204d61726b6574706c616365204275793a2053656e64696e672073657260008201527f76696365206665652066726f6d20627579657220616e642073656c6c6572207460208201527f6f206e6674206d61726b6574706c616365206f776e6572206973206661696c6560408201527f642e000000000000000000000000000000000000000000000000000000000000606082015250565b613e00816136c4565b8114613e0b57600080fd5b50565b613e17816136d6565b8114613e2257600080fd5b50565b613e2e81613702565b8114613e3957600080fd5b5056fea26469706673582212200ce0db59b808a7ea572cf086463f82f1a0b428e616ae98541d2b098a3dd9322b64736f6c63430008060033",
  "immutableReferences": {},
  "source": "// SPDX-License-Identifier: MIT \r\n\r\npragma solidity 0.8.6;\r\n\r\nimport \"./ERC721Library/ERC721.sol\";\r\nimport \"./ERC721Library/access/Ownable.sol\";\r\nimport \"./ERC721Library/utils/Counters.sol\";\r\n\r\ncontract NFTMarketplace is Ownable{\r\n    using Counters for Counters.Counter;\r\n    \r\n    Counters.Counter private _tokenIdTracker;\r\n    \r\n    ERC721 erc721;\r\n    \r\n    uint256 public serviceFee;\r\n    \r\n    struct NFToken{\r\n        string title;\r\n        bool status; // True: OnSale, False: OffSale\r\n        uint256 price;\r\n        uint256 royalty;\r\n        address creator;\r\n    }\r\n    \r\n    mapping(uint256 => NFToken) public tokenData;\r\n    \r\n    uint256[] private nftsOnSale;\r\n    mapping(uint256 => uint256) private _nftsIndex;\r\n    \r\n    event CreateNFT(address _creator, string _title, uint256 _royalty, string _identifier, bytes _memo);\r\n    \r\n    event ListNFT(uint256 _tokenId, uint256 _price);\r\n    \r\n    event UnListNFT(uint256 _tokenId);\r\n\r\n    event BuyNFT(uint256 _tokenId, address _to, bytes _memo);\r\n\r\n    event DeleteNFT(uint256 _tokenId,address _who);\r\n\r\n    constructor(address _erc721address, string memory _baseTokenURI, uint256 _serviceFee){\r\n        erc721 = ERC721(_erc721address);\r\n        erc721.proxySetBaseURI(_baseTokenURI);\r\n        serviceFee = _serviceFee;\r\n    }\r\n\r\n    fallback() external payable {}\r\n\r\n    receive() external payable {}\r\n    \r\n    function changeServiceFee(uint256 _serviceFee) public onlyOwner{\r\n        serviceFee = _serviceFee;\r\n    }\r\n    \r\n    function changeBaseURI(string memory _baseTokenURI) public onlyOwner{\r\n       erc721.proxySetBaseURI(_baseTokenURI);\r\n    }\r\n    \r\n    function createNFT(address _creator, string memory _title, uint256 _royalty, string memory _identifier, bytes memory _memo)public{\r\n        require(_creator == msg.sender,\"NFT Market Place: You can't create NFT on behalf of others\");\r\n        _tokenIdTracker.increment();\r\n        uint256 tokenId = _tokenIdTracker.current();\r\n        erc721.proxySafeMint(_creator, tokenId, _memo);\r\n        erc721.proxySetTokenURI(tokenId,_identifier);\r\n        tokenData[tokenId] = NFToken(_title, false, 0, _royalty, _creator);\r\n        emit CreateNFT(_creator, _title, _royalty, _identifier, _memo);\r\n    }\r\n    \r\n    function updateRoyaltyOfNFT(uint256 _tokenId, uint256 _royalty)public{\r\n        require(msg.sender==tokenData[_tokenId].creator,\"NFT MarketPlace: Only owner of NFT can update royalty\");\r\n        tokenData[_tokenId].royalty = _royalty;\r\n    }\r\n\r\n    function listNFT(uint256 _tokenId, uint256 _price)public{\r\n        require(erc721.ownerOf(_tokenId)==msg.sender,\"NFT Market Place: Only owner of NFT can list\");\r\n        require(!tokenData[_tokenId].status,\"NFT Market Place: NFT is already listed\");\r\n        tokenData[_tokenId].price = _price;\r\n        tokenData[_tokenId].status = true;\r\n        if(!erc721.isApprovedForAll(msg.sender, address(this)) && erc721.getApproved(_tokenId)!=address(this)){\r\n            erc721.proxyApprove(address(this),_tokenId);\r\n        }\r\n        uint256 nftIndex = nftsOnSale.length;\r\n        nftsOnSale.push(_tokenId);\r\n        _nftsIndex[_tokenId] = nftIndex;\r\n        emit ListNFT(_tokenId, _price);\r\n    }\r\n    \r\n    function unListNFT(uint256 _tokenId)public{\r\n        require(tx.origin==erc721.ownerOf(_tokenId) && tokenData[_tokenId].status,\"NFT MarketPlace: Only owner of NFT can unlist NFT from MarketPlace or NFT is already unlisted\");\r\n        tokenData[_tokenId].status = false;\r\n        uint256 nftIndex = _nftsIndex[_tokenId];\r\n        delete nftsOnSale[nftIndex];\r\n        delete _nftsIndex[_tokenId];\r\n        emit UnListNFT(_tokenId);\r\n    }\r\n    \r\n    function updatePriceOfNFT(uint256 _tokenId, uint256 _updatedPrice)public{\r\n        require(msg.sender==erc721.ownerOf(_tokenId) && tokenData[_tokenId].status,\"NFT MarketPlace: Only owner of NFT can update price\");\r\n        tokenData[_tokenId].price = _updatedPrice;\r\n    }\r\n\r\n    function buyNFT(uint256 _tokenId, address _to, bytes memory _memo)public payable{\r\n        require(_to==_msgSender() && (tokenData[_tokenId].status),\"NFT MarketPlace: only buyer can buy NFT when NFT is listed\");\r\n        address currentOwner = erc721.ownerOf(_tokenId);\r\n        uint256 amount = tokenData[_tokenId].price;\r\n        address creator = tokenData[_tokenId].creator;\r\n        uint256 royalty = tokenData[_tokenId].royalty;\r\n        uint256 royaltyAmount = (amount*royalty)/100;\r\n        uint256 serviceFeeAmount = (amount*serviceFee)/100;\r\n        if(creator == currentOwner){\r\n            require(msg.value >= amount+ serviceFeeAmount, \"NFT Marketplace: insufficient balance in your account to buy NFT\");\r\n        }else if(creator == _to){\r\n            require(msg.value >= amount+ serviceFeeAmount, \"NFT Marketplace: insufficient balance in your account to buy NFT\");\r\n        }else{\r\n            require(msg.value >= amount+ serviceFeeAmount + royaltyAmount, \"NFT Marketplace: insufficient balance in your account to buy NFT\");\r\n            (bool successForCreator, ) = payable(creator).call{value : royaltyAmount}(\"\");\r\n            require(successForCreator, \"NFT Marketplace Buy: Sending money from buyer to creator is failed.\");\r\n        }\r\n        (bool successForSeller, ) = payable(currentOwner).call{ value: amount - serviceFeeAmount }(\"\");\r\n        require(successForSeller, \"NFT Marketplace Buy: Sending money from buyer to seller is failed.\");\r\n        (bool successForOwner, ) = payable(address(this)).call{ value: serviceFeeAmount*2 }(\"\");\r\n        require(successForOwner, \"NFT Marketplace Buy: Sending service fee from buyer and seller to nft marketplace owner is failed.\");\r\n        erc721.safeTransferFrom(currentOwner,_to,_tokenId,_memo);\r\n        tokenData[_tokenId].status = false;\r\n        uint256 nftIndex = _nftsIndex[_tokenId];\r\n        delete nftsOnSale[nftIndex];\r\n        delete _nftsIndex[_tokenId];\r\n        emit BuyNFT(_tokenId, _to, _memo);\r\n    }\r\n\r\n    function deleteNFT(uint256 _tokenId)public{\r\n        require(msg.sender==erc721.ownerOf(_tokenId),\"NFT MarketPlace: Only owner of NFT can delete\");\r\n        if(tokenData[_tokenId].status){\r\n            this.unListNFT(_tokenId);\r\n        }\r\n        erc721.proxyBurn(_tokenId);\r\n        delete tokenData[_tokenId];\r\n        emit DeleteNFT(_tokenId, msg.sender);\r\n    }\r\n    \r\n    function getMyItems()public view returns(uint256[] memory){\r\n        address collector = msg.sender;\r\n        uint256 bal = erc721.balanceOf(collector);\r\n        uint256[] memory myItems;\r\n        for(uint256 i=0; i<bal; i++){\r\n            myItems[i] = erc721.tokenOfOwnerByIndex(collector,i);\r\n        }\r\n        return myItems;\r\n    }\r\n\r\n    function getMyListedItems()public view returns(uint256[] memory){\r\n        address collector = msg.sender;\r\n        uint256 bal = erc721.balanceOf(collector);\r\n        uint256[] memory myItems;\r\n        uint256 count=0;\r\n        for(uint256 i=0; i<bal; i++){\r\n            uint256 myItemId = erc721.tokenOfOwnerByIndex(collector,i);\r\n            if(tokenData[myItemId].status){\r\n                myItems[count] = myItemId;\r\n                count = count + 1;\r\n            }\r\n        }\r\n        return myItems;\r\n    }\r\n\r\n    function getMyCreatedItems()public view returns(uint256[] memory){\r\n        address collector = msg.sender;\r\n        uint256 bal = erc721.totalSupply();\r\n        uint256[] memory myItems;\r\n        uint256 count=0;\r\n        for(uint256 i=0; i<bal; i++){\r\n            uint256 myItemId = erc721.tokenByIndex(i);\r\n            if(tokenData[myItemId].creator == collector){\r\n                myItems[count] = myItemId;\r\n                count = count + 1;\r\n            }\r\n        }\r\n        return myItems;\r\n    }\r\n\r\n    function dashboardItems()public view returns(uint256[] memory){\r\n        address collector = msg.sender;\r\n        uint256 bal = erc721.totalSupply();\r\n        uint256[] memory myItems;\r\n        uint256 count=0;\r\n        for(uint256 i=0; i<bal; i++){\r\n            uint256 myItemId = erc721.tokenByIndex(i);\r\n            if(erc721.ownerOf(myItemId) != collector && tokenData[myItemId].status){\r\n                myItems[count] = myItemId;\r\n                count = count + 1;\r\n            }\r\n        }\r\n        return myItems;\r\n    }\r\n    \r\n    function getNFTsOnSale() public view returns(uint256[] memory){\r\n        return nftsOnSale;\r\n    }\r\n}",
  "sourcePath": "/home/vijaysugali/Desktop/Hackathons/HackOdisha/SmartContracts/main_contracts/SrujanMint/contracts/NFTMarketplace.sol",
  "compiler": {
    "name": "solc",
    "version": "0.8.6+commit.11564f7e.Emscripten.clang"
  },
  "schemaVersion": "3.4.1",
  "updatedAt": "2021-09-18T11:35:25.808Z",
  "networkType": "ethereum",
  "devdoc": {
    "kind": "dev",
    "methods": {},
    "version": 1
  },
  "userdoc": {
    "kind": "user",
    "methods": {},
    "version": 1
  }
}